{
	"contracts/10.sol": {
		"child": {
			"abi": [
				{
					"inputs": [
						{
							"internalType": "int256",
							"name": "num",
							"type": "int256"
						}
					],
					"name": "foo",
					"outputs": [
						{
							"internalType": "int256",
							"name": "",
							"type": "int256"
						}
					],
					"stateMutability": "view",
					"type": "function"
				},
				{
					"inputs": [
						{
							"internalType": "int256",
							"name": "x",
							"type": "int256"
						}
					],
					"name": "soo",
					"outputs": [
						{
							"internalType": "int256",
							"name": "",
							"type": "int256"
						}
					],
					"stateMutability": "view",
					"type": "function"
				}
			],
			"devdoc": {
				"kind": "dev",
				"methods": {},
				"version": 1
			},
			"evm": {
				"assembly": "    /* \"contracts/10.sol\":253:395  contract child  is parent\r... */\n  mstore(0x40, 0x80)\n  callvalue\n  dup1\n  iszero\n  tag_1\n  jumpi\n  0x00\n  dup1\n  revert\ntag_1:\n  pop\n  dataSize(sub_0)\n  dup1\n  dataOffset(sub_0)\n  0x00\n  codecopy\n  0x00\n  return\nstop\n\nsub_0: assembly {\n        /* \"contracts/10.sol\":253:395  contract child  is parent\r... */\n      mstore(0x40, 0x80)\n      callvalue\n      dup1\n      iszero\n      tag_1\n      jumpi\n      0x00\n      dup1\n      revert\n    tag_1:\n      pop\n      jumpi(tag_2, lt(calldatasize, 0x04))\n      shr(0xe0, calldataload(0x00))\n      dup1\n      0x4c970b2f\n      eq\n      tag_3\n      jumpi\n      dup1\n      0xe6a1451e\n      eq\n      tag_4\n      jumpi\n    tag_2:\n      0x00\n      dup1\n      revert\n        /* \"contracts/10.sol\":49:246  function foo(int num) public view returns (int)\r... */\n    tag_3:\n      tag_5\n      0x04\n      dup1\n      calldatasize\n      sub\n      dup2\n      add\n      swap1\n      tag_6\n      swap2\n      swap1\n      tag_7\n      jump\t// in\n    tag_6:\n      tag_8\n      jump\t// in\n    tag_5:\n      mload(0x40)\n      tag_9\n      swap2\n      swap1\n      tag_10\n      jump\t// in\n    tag_9:\n      mload(0x40)\n      dup1\n      swap2\n      sub\n      swap1\n      return\n        /* \"contracts/10.sol\":287:392  function soo(int x) public view returns(int)    \r... */\n    tag_4:\n      tag_11\n      0x04\n      dup1\n      calldatasize\n      sub\n      dup2\n      add\n      swap1\n      tag_12\n      swap2\n      swap1\n      tag_7\n      jump\t// in\n    tag_12:\n      tag_13\n      jump\t// in\n    tag_11:\n      mload(0x40)\n      tag_14\n      swap2\n      swap1\n      tag_10\n      jump\t// in\n    tag_14:\n      mload(0x40)\n      dup1\n      swap2\n      sub\n      swap1\n      return\n        /* \"contracts/10.sol\":49:246  function foo(int num) public view returns (int)\r... */\n    tag_8:\n        /* \"contracts/10.sol\":92:95  int */\n      0x00\n        /* \"contracts/10.sol\":198:208  int result */\n      dup1\n        /* \"contracts/10.sol\":209:212  num */\n      dup3\n        /* \"contracts/10.sol\":198:212  int result=num */\n      swap1\n      pop\n        /* \"contracts/10.sol\":237:238  1 */\n      0x01\n        /* \"contracts/10.sol\":230:236  result */\n      dup2\n        /* \"contracts/10.sol\":230:238  result+1 */\n      tag_16\n      swap2\n      swap1\n      tag_17\n      jump\t// in\n    tag_16:\n        /* \"contracts/10.sol\":223:238  return result+1 */\n      swap2\n      pop\n      pop\n        /* \"contracts/10.sol\":49:246  function foo(int num) public view returns (int)\r... */\n      swap2\n      swap1\n      pop\n      jump\t// out\n        /* \"contracts/10.sol\":287:392  function soo(int x) public view returns(int)    \r... */\n    tag_13:\n        /* \"contracts/10.sol\":327:330  int */\n      0x00\n        /* \"contracts/10.sol\":352:357  int z */\n      dup1\n        /* \"contracts/10.sol\":359:365  foo(x) */\n      tag_19\n        /* \"contracts/10.sol\":363:364  x */\n      dup4\n        /* \"contracts/10.sol\":359:362  foo */\n      tag_8\n        /* \"contracts/10.sol\":359:365  foo(x) */\n      jump\t// in\n    tag_19:\n        /* \"contracts/10.sol\":352:365  int z= foo(x) */\n      swap1\n      pop\n        /* \"contracts/10.sol\":383:384  z */\n      dup1\n        /* \"contracts/10.sol\":376:384  return z */\n      swap2\n      pop\n      pop\n        /* \"contracts/10.sol\":287:392  function soo(int x) public view returns(int)    \r... */\n      swap2\n      swap1\n      pop\n      jump\t// out\n        /* \"#utility.yul\":7:144   */\n    tag_21:\n        /* \"#utility.yul\":52:57   */\n      0x00\n        /* \"#utility.yul\":90:96   */\n      dup2\n        /* \"#utility.yul\":77:97   */\n      calldataload\n        /* \"#utility.yul\":68:97   */\n      swap1\n      pop\n        /* \"#utility.yul\":106:138   */\n      tag_23\n        /* \"#utility.yul\":132:137   */\n      dup2\n        /* \"#utility.yul\":106:138   */\n      tag_24\n      jump\t// in\n    tag_23:\n        /* \"#utility.yul\":7:144   */\n      swap3\n      swap2\n      pop\n      pop\n      jump\t// out\n        /* \"#utility.yul\":150:477   */\n    tag_7:\n        /* \"#utility.yul\":208:214   */\n      0x00\n        /* \"#utility.yul\":257:259   */\n      0x20\n        /* \"#utility.yul\":245:254   */\n      dup3\n        /* \"#utility.yul\":236:243   */\n      dup5\n        /* \"#utility.yul\":232:255   */\n      sub\n        /* \"#utility.yul\":228:260   */\n      slt\n        /* \"#utility.yul\":225:344   */\n      iszero\n      tag_26\n      jumpi\n        /* \"#utility.yul\":263:342   */\n      tag_27\n      tag_28\n      jump\t// in\n    tag_27:\n        /* \"#utility.yul\":225:344   */\n    tag_26:\n        /* \"#utility.yul\":383:384   */\n      0x00\n        /* \"#utility.yul\":408:460   */\n      tag_29\n        /* \"#utility.yul\":452:459   */\n      dup5\n        /* \"#utility.yul\":443:449   */\n      dup3\n        /* \"#utility.yul\":432:441   */\n      dup6\n        /* \"#utility.yul\":428:450   */\n      add\n        /* \"#utility.yul\":408:460   */\n      tag_21\n      jump\t// in\n    tag_29:\n        /* \"#utility.yul\":398:460   */\n      swap2\n      pop\n        /* \"#utility.yul\":354:470   */\n      pop\n        /* \"#utility.yul\":150:477   */\n      swap3\n      swap2\n      pop\n      pop\n      jump\t// out\n        /* \"#utility.yul\":483:598   */\n    tag_30:\n        /* \"#utility.yul\":568:591   */\n      tag_32\n        /* \"#utility.yul\":585:590   */\n      dup2\n        /* \"#utility.yul\":568:591   */\n      tag_33\n      jump\t// in\n    tag_32:\n        /* \"#utility.yul\":563:566   */\n      dup3\n        /* \"#utility.yul\":556:592   */\n      mstore\n        /* \"#utility.yul\":483:598   */\n      pop\n      pop\n      jump\t// out\n        /* \"#utility.yul\":604:822   */\n    tag_10:\n        /* \"#utility.yul\":695:699   */\n      0x00\n        /* \"#utility.yul\":733:735   */\n      0x20\n        /* \"#utility.yul\":722:731   */\n      dup3\n        /* \"#utility.yul\":718:736   */\n      add\n        /* \"#utility.yul\":710:736   */\n      swap1\n      pop\n        /* \"#utility.yul\":746:815   */\n      tag_35\n        /* \"#utility.yul\":812:813   */\n      0x00\n        /* \"#utility.yul\":801:810   */\n      dup4\n        /* \"#utility.yul\":797:814   */\n      add\n        /* \"#utility.yul\":788:794   */\n      dup5\n        /* \"#utility.yul\":746:815   */\n      tag_30\n      jump\t// in\n    tag_35:\n        /* \"#utility.yul\":604:822   */\n      swap3\n      swap2\n      pop\n      pop\n      jump\t// out\n        /* \"#utility.yul\":909:1434   */\n    tag_17:\n        /* \"#utility.yul\":948:951   */\n      0x00\n        /* \"#utility.yul\":967:986   */\n      tag_39\n        /* \"#utility.yul\":984:985   */\n      dup3\n        /* \"#utility.yul\":967:986   */\n      tag_33\n      jump\t// in\n    tag_39:\n        /* \"#utility.yul\":962:986   */\n      swap2\n      pop\n        /* \"#utility.yul\":1000:1019   */\n      tag_40\n        /* \"#utility.yul\":1017:1018   */\n      dup4\n        /* \"#utility.yul\":1000:1019   */\n      tag_33\n      jump\t// in\n    tag_40:\n        /* \"#utility.yul\":995:1019   */\n      swap3\n      pop\n        /* \"#utility.yul\":1188:1189   */\n      dup2\n        /* \"#utility.yul\":1120:1186   */\n      0x7fffffffffffffffffffffffffffffffffffffffffffffffffffffffffffffff\n        /* \"#utility.yul\":1116:1190   */\n      sub\n        /* \"#utility.yul\":1113:1114   */\n      dup4\n        /* \"#utility.yul\":1109:1191   */\n      sgt\n        /* \"#utility.yul\":1104:1105   */\n      0x00\n        /* \"#utility.yul\":1101:1102   */\n      dup4\n        /* \"#utility.yul\":1097:1106   */\n      slt\n        /* \"#utility.yul\":1090:1107   */\n      iszero\n        /* \"#utility.yul\":1086:1192   */\n      and\n        /* \"#utility.yul\":1083:1215   */\n      iszero\n      tag_41\n      jumpi\n        /* \"#utility.yul\":1195:1213   */\n      tag_42\n      tag_43\n      jump\t// in\n    tag_42:\n        /* \"#utility.yul\":1083:1215   */\n    tag_41:\n        /* \"#utility.yul\":1375:1376   */\n      dup2\n        /* \"#utility.yul\":1307:1373   */\n      0x8000000000000000000000000000000000000000000000000000000000000000\n        /* \"#utility.yul\":1303:1377   */\n      sub\n        /* \"#utility.yul\":1300:1301   */\n      dup4\n        /* \"#utility.yul\":1296:1378   */\n      slt\n        /* \"#utility.yul\":1292:1293   */\n      0x00\n        /* \"#utility.yul\":1289:1290   */\n      dup4\n        /* \"#utility.yul\":1285:1294   */\n      slt\n        /* \"#utility.yul\":1281:1379   */\n      and\n        /* \"#utility.yul\":1278:1402   */\n      iszero\n      tag_44\n      jumpi\n        /* \"#utility.yul\":1382:1400   */\n      tag_45\n      tag_43\n      jump\t// in\n    tag_45:\n        /* \"#utility.yul\":1278:1402   */\n    tag_44:\n        /* \"#utility.yul\":1426:1427   */\n      dup3\n        /* \"#utility.yul\":1423:1424   */\n      dup3\n        /* \"#utility.yul\":1419:1428   */\n      add\n        /* \"#utility.yul\":1412:1428   */\n      swap1\n      pop\n        /* \"#utility.yul\":909:1434   */\n      swap3\n      swap2\n      pop\n      pop\n      jump\t// out\n        /* \"#utility.yul\":1440:1516   */\n    tag_33:\n        /* \"#utility.yul\":1476:1483   */\n      0x00\n        /* \"#utility.yul\":1505:1510   */\n      dup2\n        /* \"#utility.yul\":1494:1510   */\n      swap1\n      pop\n        /* \"#utility.yul\":1440:1516   */\n      swap2\n      swap1\n      pop\n      jump\t// out\n        /* \"#utility.yul\":1522:1702   */\n    tag_43:\n        /* \"#utility.yul\":1570:1647   */\n      0x4e487b7100000000000000000000000000000000000000000000000000000000\n        /* \"#utility.yul\":1567:1568   */\n      0x00\n        /* \"#utility.yul\":1560:1648   */\n      mstore\n        /* \"#utility.yul\":1667:1671   */\n      0x11\n        /* \"#utility.yul\":1664:1665   */\n      0x04\n        /* \"#utility.yul\":1657:1672   */\n      mstore\n        /* \"#utility.yul\":1691:1695   */\n      0x24\n        /* \"#utility.yul\":1688:1689   */\n      0x00\n        /* \"#utility.yul\":1681:1696   */\n      revert\n        /* \"#utility.yul\":1831:1948   */\n    tag_28:\n        /* \"#utility.yul\":1940:1941   */\n      0x00\n        /* \"#utility.yul\":1937:1938   */\n      dup1\n        /* \"#utility.yul\":1930:1942   */\n      revert\n        /* \"#utility.yul\":1954:2074   */\n    tag_24:\n        /* \"#utility.yul\":2026:2049   */\n      tag_52\n        /* \"#utility.yul\":2043:2048   */\n      dup2\n        /* \"#utility.yul\":2026:2049   */\n      tag_33\n      jump\t// in\n    tag_52:\n        /* \"#utility.yul\":2019:2024   */\n      dup2\n        /* \"#utility.yul\":2016:2050   */\n      eq\n        /* \"#utility.yul\":2006:2068   */\n      tag_53\n      jumpi\n        /* \"#utility.yul\":2064:2065   */\n      0x00\n        /* \"#utility.yul\":2061:2062   */\n      dup1\n        /* \"#utility.yul\":2054:2066   */\n      revert\n        /* \"#utility.yul\":2006:2068   */\n    tag_53:\n        /* \"#utility.yul\":1954:2074   */\n      pop\n      jump\t// out\n\n    auxdata: 0xa2646970667358221220472c6b64a7e0a3a56079bdf50d8b98dc8a77ccf57a28ce3c05f843cca15eef9264736f6c63430008070033\n}\n",
				"bytecode": {
					"linkReferences": {},
					"object": "608060405234801561001057600080fd5b50610258806100206000396000f3fe608060405234801561001057600080fd5b50600436106100365760003560e01c80634c970b2f1461003b578063e6a1451e1461006b575b600080fd5b610055600480360381019061005091906100e2565b61009b565b604051610062919061011e565b60405180910390f35b610085600480360381019061008091906100e2565b6100b6565b604051610092919061011e565b60405180910390f35b6000808290506001816100ae9190610139565b915050919050565b6000806100c28361009b565b905080915050919050565b6000813590506100dc8161020b565b92915050565b6000602082840312156100f8576100f7610206565b5b6000610106848285016100cd565b91505092915050565b610118816101cd565b82525050565b6000602082019050610133600083018461010f565b92915050565b6000610144826101cd565b915061014f836101cd565b9250817f7fffffffffffffffffffffffffffffffffffffffffffffffffffffffffffffff0383136000831215161561018a576101896101d7565b5b817f80000000000000000000000000000000000000000000000000000000000000000383126000831216156101c2576101c16101d7565b5b828201905092915050565b6000819050919050565b7f4e487b7100000000000000000000000000000000000000000000000000000000600052601160045260246000fd5b600080fd5b610214816101cd565b811461021f57600080fd5b5056fea2646970667358221220472c6b64a7e0a3a56079bdf50d8b98dc8a77ccf57a28ce3c05f843cca15eef9264736f6c63430008070033",
					"opcodes": "PUSH1 0x80 PUSH1 0x40 MSTORE CALLVALUE DUP1 ISZERO PUSH2 0x10 JUMPI PUSH1 0x0 DUP1 REVERT JUMPDEST POP PUSH2 0x258 DUP1 PUSH2 0x20 PUSH1 0x0 CODECOPY PUSH1 0x0 RETURN INVALID PUSH1 0x80 PUSH1 0x40 MSTORE CALLVALUE DUP1 ISZERO PUSH2 0x10 JUMPI PUSH1 0x0 DUP1 REVERT JUMPDEST POP PUSH1 0x4 CALLDATASIZE LT PUSH2 0x36 JUMPI PUSH1 0x0 CALLDATALOAD PUSH1 0xE0 SHR DUP1 PUSH4 0x4C970B2F EQ PUSH2 0x3B JUMPI DUP1 PUSH4 0xE6A1451E EQ PUSH2 0x6B JUMPI JUMPDEST PUSH1 0x0 DUP1 REVERT JUMPDEST PUSH2 0x55 PUSH1 0x4 DUP1 CALLDATASIZE SUB DUP2 ADD SWAP1 PUSH2 0x50 SWAP2 SWAP1 PUSH2 0xE2 JUMP JUMPDEST PUSH2 0x9B JUMP JUMPDEST PUSH1 0x40 MLOAD PUSH2 0x62 SWAP2 SWAP1 PUSH2 0x11E JUMP JUMPDEST PUSH1 0x40 MLOAD DUP1 SWAP2 SUB SWAP1 RETURN JUMPDEST PUSH2 0x85 PUSH1 0x4 DUP1 CALLDATASIZE SUB DUP2 ADD SWAP1 PUSH2 0x80 SWAP2 SWAP1 PUSH2 0xE2 JUMP JUMPDEST PUSH2 0xB6 JUMP JUMPDEST PUSH1 0x40 MLOAD PUSH2 0x92 SWAP2 SWAP1 PUSH2 0x11E JUMP JUMPDEST PUSH1 0x40 MLOAD DUP1 SWAP2 SUB SWAP1 RETURN JUMPDEST PUSH1 0x0 DUP1 DUP3 SWAP1 POP PUSH1 0x1 DUP2 PUSH2 0xAE SWAP2 SWAP1 PUSH2 0x139 JUMP JUMPDEST SWAP2 POP POP SWAP2 SWAP1 POP JUMP JUMPDEST PUSH1 0x0 DUP1 PUSH2 0xC2 DUP4 PUSH2 0x9B JUMP JUMPDEST SWAP1 POP DUP1 SWAP2 POP POP SWAP2 SWAP1 POP JUMP JUMPDEST PUSH1 0x0 DUP2 CALLDATALOAD SWAP1 POP PUSH2 0xDC DUP2 PUSH2 0x20B JUMP JUMPDEST SWAP3 SWAP2 POP POP JUMP JUMPDEST PUSH1 0x0 PUSH1 0x20 DUP3 DUP5 SUB SLT ISZERO PUSH2 0xF8 JUMPI PUSH2 0xF7 PUSH2 0x206 JUMP JUMPDEST JUMPDEST PUSH1 0x0 PUSH2 0x106 DUP5 DUP3 DUP6 ADD PUSH2 0xCD JUMP JUMPDEST SWAP2 POP POP SWAP3 SWAP2 POP POP JUMP JUMPDEST PUSH2 0x118 DUP2 PUSH2 0x1CD JUMP JUMPDEST DUP3 MSTORE POP POP JUMP JUMPDEST PUSH1 0x0 PUSH1 0x20 DUP3 ADD SWAP1 POP PUSH2 0x133 PUSH1 0x0 DUP4 ADD DUP5 PUSH2 0x10F JUMP JUMPDEST SWAP3 SWAP2 POP POP JUMP JUMPDEST PUSH1 0x0 PUSH2 0x144 DUP3 PUSH2 0x1CD JUMP JUMPDEST SWAP2 POP PUSH2 0x14F DUP4 PUSH2 0x1CD JUMP JUMPDEST SWAP3 POP DUP2 PUSH32 0x7FFFFFFFFFFFFFFFFFFFFFFFFFFFFFFFFFFFFFFFFFFFFFFFFFFFFFFFFFFFFFFF SUB DUP4 SGT PUSH1 0x0 DUP4 SLT ISZERO AND ISZERO PUSH2 0x18A JUMPI PUSH2 0x189 PUSH2 0x1D7 JUMP JUMPDEST JUMPDEST DUP2 PUSH32 0x8000000000000000000000000000000000000000000000000000000000000000 SUB DUP4 SLT PUSH1 0x0 DUP4 SLT AND ISZERO PUSH2 0x1C2 JUMPI PUSH2 0x1C1 PUSH2 0x1D7 JUMP JUMPDEST JUMPDEST DUP3 DUP3 ADD SWAP1 POP SWAP3 SWAP2 POP POP JUMP JUMPDEST PUSH1 0x0 DUP2 SWAP1 POP SWAP2 SWAP1 POP JUMP JUMPDEST PUSH32 0x4E487B7100000000000000000000000000000000000000000000000000000000 PUSH1 0x0 MSTORE PUSH1 0x11 PUSH1 0x4 MSTORE PUSH1 0x24 PUSH1 0x0 REVERT JUMPDEST PUSH1 0x0 DUP1 REVERT JUMPDEST PUSH2 0x214 DUP2 PUSH2 0x1CD JUMP JUMPDEST DUP2 EQ PUSH2 0x21F JUMPI PUSH1 0x0 DUP1 REVERT JUMPDEST POP JUMP INVALID LOG2 PUSH5 0x6970667358 0x22 SLT KECCAK256 SELFBALANCE 0x2C PUSH12 0x64A7E0A3A56079BDF50D8B98 0xDC DUP11 PUSH24 0xCCF57A28CE3C05F843CCA15EEF9264736F6C634300080700 CALLER "
				},
				"gasEstimates": {
					"creation": {
						"codeDepositCost": "120000",
						"executionCost": "165",
						"totalCost": "120165"
					},
					"external": {
						"foo(int256)": "infinite",
						"soo(int256)": "infinite"
					}
				},
				"methodIdentifiers": {
					"foo(int256)": "4c970b2f",
					"soo(int256)": "e6a1451e"
				}
			},
			"userdoc": {
				"kind": "user",
				"methods": {},
				"version": 1
			}
		}
	}
}