{
	"contracts/18.sol": {
		"test": {
			"abi": [
				{
					"constant": true,
					"inputs": [],
					"name": "getBookId",
					"outputs": [
						{
							"internalType": "uint256",
							"name": "",
							"type": "uint256"
						}
					],
					"payable": false,
					"stateMutability": "view",
					"type": "function"
				},
				{
					"constant": false,
					"inputs": [],
					"name": "setBook",
					"outputs": [],
					"payable": false,
					"stateMutability": "nonpayable",
					"type": "function"
				}
			],
			"devdoc": {
				"methods": {}
			},
			"evm": {
				"assembly": "    /* \"contracts/18.sol\":27:320  contract test {\r... */\n  mstore(0x40, 0x80)\n  callvalue\n    /* \"--CODEGEN--\":8:17   */\n  dup1\n    /* \"--CODEGEN--\":5:7   */\n  iszero\n  tag_1\n  jumpi\n    /* \"--CODEGEN--\":30:31   */\n  0x00\n    /* \"--CODEGEN--\":27:28   */\n  dup1\n    /* \"--CODEGEN--\":20:32   */\n  revert\n    /* \"--CODEGEN--\":5:7   */\ntag_1:\n    /* \"contracts/18.sol\":27:320  contract test {\r... */\n  pop\n  dataSize(sub_0)\n  dup1\n  dataOffset(sub_0)\n  0x00\n  codecopy\n  0x00\n  return\nstop\n\nsub_0: assembly {\n        /* \"contracts/18.sol\":27:320  contract test {\r... */\n      mstore(0x40, 0x80)\n      callvalue\n        /* \"--CODEGEN--\":8:17   */\n      dup1\n        /* \"--CODEGEN--\":5:7   */\n      iszero\n      tag_1\n      jumpi\n        /* \"--CODEGEN--\":30:31   */\n      0x00\n        /* \"--CODEGEN--\":27:28   */\n      dup1\n        /* \"--CODEGEN--\":20:32   */\n      revert\n        /* \"--CODEGEN--\":5:7   */\n    tag_1:\n        /* \"contracts/18.sol\":27:320  contract test {\r... */\n      pop\n      jumpi(tag_2, lt(calldatasize, 0x04))\n      shr(0xe0, calldataload(0x00))\n      dup1\n      0x7310d33c\n      eq\n      tag_3\n      jumpi\n      dup1\n      0xd629546c\n      eq\n      tag_4\n      jumpi\n    tag_2:\n      0x00\n      dup1\n      revert\n        /* \"contracts/18.sol\":234:317  function getBookId() public view returns (uint) {\r... */\n    tag_3:\n      tag_5\n      tag_6\n      jump\t// in\n    tag_5:\n      mload(0x40)\n      dup1\n      dup3\n      dup2\n      mstore\n      0x20\n      add\n      swap2\n      pop\n      pop\n      mload(0x40)\n      dup1\n      swap2\n      sub\n      swap1\n      return\n        /* \"contracts/18.sol\":153:229  function setBook() public {\r... */\n    tag_4:\n      tag_7\n      tag_8\n      jump\t// in\n    tag_7:\n      stop\n        /* \"contracts/18.sol\":234:317  function getBookId() public view returns (uint) {\r... */\n    tag_6:\n        /* \"contracts/18.sol\":276:280  uint */\n      0x00\n        /* \"contracts/18.sol\":298:302  book */\n      dup1\n        /* \"contracts/18.sol\":298:310  book.book_id */\n      0x02\n      add\n      sload\n        /* \"contracts/18.sol\":291:310  return book.book_id */\n      swap1\n      pop\n        /* \"contracts/18.sol\":234:317  function getBookId() public view returns (uint) {\r... */\n      swap1\n      jump\t// out\n        /* \"contracts/18.sol\":153:229  function setBook() public {\r... */\n    tag_8:\n        /* \"contracts/18.sol\":195:222  Book('Learn Java', 'TP', 1) */\n      mload(0x40)\n      dup1\n      0x60\n      add\n      0x40\n      mstore\n      dup1\n      mload(0x40)\n      dup1\n      0x40\n      add\n      0x40\n      mstore\n      dup1\n      0x0a\n      dup2\n      mstore\n      0x20\n      add\n      0x4c6561726e204a61766100000000000000000000000000000000000000000000\n      dup2\n      mstore\n      pop\n      dup2\n      mstore\n      0x20\n      add\n      mload(0x40)\n      dup1\n      0x40\n      add\n      0x40\n      mstore\n      dup1\n      0x02\n      dup2\n      mstore\n      0x20\n      add\n      0x5450000000000000000000000000000000000000000000000000000000000000\n      dup2\n      mstore\n      pop\n      dup2\n      mstore\n      0x20\n      add\n        /* \"contracts/18.sol\":220:221  1 */\n      0x01\n        /* \"contracts/18.sol\":195:222  Book('Learn Java', 'TP', 1) */\n      dup2\n      mstore\n      pop\n        /* \"contracts/18.sol\":188:192  book */\n      0x00\n        /* \"contracts/18.sol\":188:222  book = Book('Learn Java', 'TP', 1) */\n      dup1\n      dup3\n      add\n      mload\n      dup2\n      0x00\n      add\n      swap1\n      dup1\n      mload\n      swap1\n      0x20\n      add\n      swap1\n      tag_11\n      swap3\n      swap2\n      swap1\n      tag_12\n      jump\t// in\n    tag_11:\n      pop\n      0x20\n      dup3\n      add\n      mload\n      dup2\n      0x01\n      add\n      swap1\n      dup1\n      mload\n      swap1\n      0x20\n      add\n      swap1\n      tag_13\n      swap3\n      swap2\n      swap1\n      tag_12\n      jump\t// in\n    tag_13:\n      pop\n      0x40\n      dup3\n      add\n      mload\n      dup2\n      0x02\n      add\n      sstore\n      swap1\n      pop\n      pop\n        /* \"contracts/18.sol\":153:229  function setBook() public {\r... */\n      jump\t// out\n        /* \"contracts/18.sol\":27:320  contract test {\r... */\n    tag_12:\n      dup3\n      dup1\n      sload\n      0x01\n      dup2\n      0x01\n      and\n      iszero\n      0x0100\n      mul\n      sub\n      and\n      0x02\n      swap1\n      div\n      swap1\n      0x00\n      mstore\n      keccak256(0x00, 0x20)\n      swap1\n      0x1f\n      add\n      0x20\n      swap1\n      div\n      dup2\n      add\n      swap3\n      dup3\n      0x1f\n      lt\n      tag_15\n      jumpi\n      dup1\n      mload\n      not(0xff)\n      and\n      dup4\n      dup1\n      add\n      or\n      dup6\n      sstore\n      jump(tag_14)\n    tag_15:\n      dup3\n      dup1\n      add\n      0x01\n      add\n      dup6\n      sstore\n      dup3\n      iszero\n      tag_14\n      jumpi\n      swap2\n      dup3\n      add\n    tag_16:\n      dup3\n      dup2\n      gt\n      iszero\n      tag_17\n      jumpi\n      dup3\n      mload\n      dup3\n      sstore\n      swap2\n      0x20\n      add\n      swap2\n      swap1\n      0x01\n      add\n      swap1\n      jump(tag_16)\n    tag_17:\n    tag_14:\n      pop\n      swap1\n      pop\n      tag_18\n      swap2\n      swap1\n      tag_19\n      jump\t// in\n    tag_18:\n      pop\n      swap1\n      jump\t// out\n    tag_19:\n      tag_20\n      swap2\n      swap1\n    tag_21:\n      dup1\n      dup3\n      gt\n      iszero\n      tag_22\n      jumpi\n      0x00\n      dup2\n      0x00\n      swap1\n      sstore\n      pop\n      0x01\n      add\n      jump(tag_21)\n    tag_22:\n      pop\n      swap1\n      jump\n    tag_20:\n      swap1\n      jump\t// out\n\n    auxdata: 0xa265627a7a72315820c522b32ccb7940a695d877f520345a4844dc46e273c55c2e41c6cd81d2af8c8264736f6c63430005110032\n}\n",
				"bytecode": {
					"linkReferences": {},
					"object": "608060405234801561001057600080fd5b50610219806100206000396000f3fe608060405234801561001057600080fd5b50600436106100365760003560e01c80637310d33c1461003b578063d629546c14610059575b600080fd5b610043610063565b6040518082815260200191505060405180910390f35b61006161006f565b005b60008060020154905090565b60405180606001604052806040518060400160405280600a81526020017f4c6561726e204a6176610000000000000000000000000000000000000000000081525081526020016040518060400160405280600281526020017f54500000000000000000000000000000000000000000000000000000000000008152508152602001600181525060008082015181600001908051906020019061011292919061013f565b50602082015181600101908051906020019061012f92919061013f565b5060408201518160020155905050565b828054600181600116156101000203166002900490600052602060002090601f016020900481019282601f1061018057805160ff19168380011785556101ae565b828001600101855582156101ae579182015b828111156101ad578251825591602001919060010190610192565b5b5090506101bb91906101bf565b5090565b6101e191905b808211156101dd5760008160009055506001016101c5565b5090565b9056fea265627a7a72315820c522b32ccb7940a695d877f520345a4844dc46e273c55c2e41c6cd81d2af8c8264736f6c63430005110032",
					"opcodes": "PUSH1 0x80 PUSH1 0x40 MSTORE CALLVALUE DUP1 ISZERO PUSH2 0x10 JUMPI PUSH1 0x0 DUP1 REVERT JUMPDEST POP PUSH2 0x219 DUP1 PUSH2 0x20 PUSH1 0x0 CODECOPY PUSH1 0x0 RETURN INVALID PUSH1 0x80 PUSH1 0x40 MSTORE CALLVALUE DUP1 ISZERO PUSH2 0x10 JUMPI PUSH1 0x0 DUP1 REVERT JUMPDEST POP PUSH1 0x4 CALLDATASIZE LT PUSH2 0x36 JUMPI PUSH1 0x0 CALLDATALOAD PUSH1 0xE0 SHR DUP1 PUSH4 0x7310D33C EQ PUSH2 0x3B JUMPI DUP1 PUSH4 0xD629546C EQ PUSH2 0x59 JUMPI JUMPDEST PUSH1 0x0 DUP1 REVERT JUMPDEST PUSH2 0x43 PUSH2 0x63 JUMP JUMPDEST PUSH1 0x40 MLOAD DUP1 DUP3 DUP2 MSTORE PUSH1 0x20 ADD SWAP2 POP POP PUSH1 0x40 MLOAD DUP1 SWAP2 SUB SWAP1 RETURN JUMPDEST PUSH2 0x61 PUSH2 0x6F JUMP JUMPDEST STOP JUMPDEST PUSH1 0x0 DUP1 PUSH1 0x2 ADD SLOAD SWAP1 POP SWAP1 JUMP JUMPDEST PUSH1 0x40 MLOAD DUP1 PUSH1 0x60 ADD PUSH1 0x40 MSTORE DUP1 PUSH1 0x40 MLOAD DUP1 PUSH1 0x40 ADD PUSH1 0x40 MSTORE DUP1 PUSH1 0xA DUP2 MSTORE PUSH1 0x20 ADD PUSH32 0x4C6561726E204A61766100000000000000000000000000000000000000000000 DUP2 MSTORE POP DUP2 MSTORE PUSH1 0x20 ADD PUSH1 0x40 MLOAD DUP1 PUSH1 0x40 ADD PUSH1 0x40 MSTORE DUP1 PUSH1 0x2 DUP2 MSTORE PUSH1 0x20 ADD PUSH32 0x5450000000000000000000000000000000000000000000000000000000000000 DUP2 MSTORE POP DUP2 MSTORE PUSH1 0x20 ADD PUSH1 0x1 DUP2 MSTORE POP PUSH1 0x0 DUP1 DUP3 ADD MLOAD DUP2 PUSH1 0x0 ADD SWAP1 DUP1 MLOAD SWAP1 PUSH1 0x20 ADD SWAP1 PUSH2 0x112 SWAP3 SWAP2 SWAP1 PUSH2 0x13F JUMP JUMPDEST POP PUSH1 0x20 DUP3 ADD MLOAD DUP2 PUSH1 0x1 ADD SWAP1 DUP1 MLOAD SWAP1 PUSH1 0x20 ADD SWAP1 PUSH2 0x12F SWAP3 SWAP2 SWAP1 PUSH2 0x13F JUMP JUMPDEST POP PUSH1 0x40 DUP3 ADD MLOAD DUP2 PUSH1 0x2 ADD SSTORE SWAP1 POP POP JUMP JUMPDEST DUP3 DUP1 SLOAD PUSH1 0x1 DUP2 PUSH1 0x1 AND ISZERO PUSH2 0x100 MUL SUB AND PUSH1 0x2 SWAP1 DIV SWAP1 PUSH1 0x0 MSTORE PUSH1 0x20 PUSH1 0x0 KECCAK256 SWAP1 PUSH1 0x1F ADD PUSH1 0x20 SWAP1 DIV DUP2 ADD SWAP3 DUP3 PUSH1 0x1F LT PUSH2 0x180 JUMPI DUP1 MLOAD PUSH1 0xFF NOT AND DUP4 DUP1 ADD OR DUP6 SSTORE PUSH2 0x1AE JUMP JUMPDEST DUP3 DUP1 ADD PUSH1 0x1 ADD DUP6 SSTORE DUP3 ISZERO PUSH2 0x1AE JUMPI SWAP2 DUP3 ADD JUMPDEST DUP3 DUP2 GT ISZERO PUSH2 0x1AD JUMPI DUP3 MLOAD DUP3 SSTORE SWAP2 PUSH1 0x20 ADD SWAP2 SWAP1 PUSH1 0x1 ADD SWAP1 PUSH2 0x192 JUMP JUMPDEST JUMPDEST POP SWAP1 POP PUSH2 0x1BB SWAP2 SWAP1 PUSH2 0x1BF JUMP JUMPDEST POP SWAP1 JUMP JUMPDEST PUSH2 0x1E1 SWAP2 SWAP1 JUMPDEST DUP1 DUP3 GT ISZERO PUSH2 0x1DD JUMPI PUSH1 0x0 DUP2 PUSH1 0x0 SWAP1 SSTORE POP PUSH1 0x1 ADD PUSH2 0x1C5 JUMP JUMPDEST POP SWAP1 JUMP JUMPDEST SWAP1 JUMP INVALID LOG2 PUSH6 0x627A7A723158 KECCAK256 0xC5 0x22 0xB3 0x2C 0xCB PUSH26 0x40A695D877F520345A4844DC46E273C55C2E41C6CD81D2AF8C82 PUSH5 0x736F6C6343 STOP SDIV GT STOP ORIGIN "
				},
				"gasEstimates": {
					"creation": {
						"codeDepositCost": "107400",
						"executionCost": "153",
						"totalCost": "107553"
					},
					"external": {
						"getBookId()": "997",
						"setBook()": "infinite"
					}
				},
				"methodIdentifiers": {
					"getBookId()": "7310d33c",
					"setBook()": "d629546c"
				}
			},
			"userdoc": {
				"methods": {}
			}
		}
	}
}