{
	"contracts/11.sol": {
		"XYZ": {
			"abi": [
				{
					"constant": true,
					"inputs": [
						{
							"internalType": "int256",
							"name": "num",
							"type": "int256"
						}
					],
					"name": "foo",
					"outputs": [
						{
							"internalType": "int256",
							"name": "",
							"type": "int256"
						}
					],
					"payable": false,
					"stateMutability": "view",
					"type": "function"
				}
			],
			"devdoc": {
				"methods": {}
			},
			"evm": {
				"assembly": "    /* \"contracts/11.sol\":4:178  contract XYZ\r... */\n  mstore(0x40, 0x80)\n    /* \"contracts/11.sol\":34:35  6 */\n  0x06\n    /* \"contracts/11.sol\":28:35  int x=6 */\n  0x00\n  sstore\n    /* \"contracts/11.sol\":4:178  contract XYZ\r... */\n  callvalue\n    /* \"--CODEGEN--\":8:17   */\n  dup1\n    /* \"--CODEGEN--\":5:7   */\n  iszero\n  tag_1\n  jumpi\n    /* \"--CODEGEN--\":30:31   */\n  0x00\n    /* \"--CODEGEN--\":27:28   */\n  dup1\n    /* \"--CODEGEN--\":20:32   */\n  revert\n    /* \"--CODEGEN--\":5:7   */\ntag_1:\n    /* \"contracts/11.sol\":4:178  contract XYZ\r... */\n  pop\n  dataSize(sub_0)\n  dup1\n  dataOffset(sub_0)\n  0x00\n  codecopy\n  0x00\n  return\nstop\n\nsub_0: assembly {\n        /* \"contracts/11.sol\":4:178  contract XYZ\r... */\n      mstore(0x40, 0x80)\n      callvalue\n        /* \"--CODEGEN--\":8:17   */\n      dup1\n        /* \"--CODEGEN--\":5:7   */\n      iszero\n      tag_1\n      jumpi\n        /* \"--CODEGEN--\":30:31   */\n      0x00\n        /* \"--CODEGEN--\":27:28   */\n      dup1\n        /* \"--CODEGEN--\":20:32   */\n      revert\n        /* \"--CODEGEN--\":5:7   */\n    tag_1:\n        /* \"contracts/11.sol\":4:178  contract XYZ\r... */\n      pop\n      jumpi(tag_2, lt(calldatasize, 0x04))\n      shr(0xe0, calldataload(0x00))\n      dup1\n      0x4c970b2f\n      eq\n      tag_3\n      jumpi\n    tag_2:\n      0x00\n      dup1\n      revert\n        /* \"contracts/11.sol\":57:175  function foo(int num) public view returns (int)\r... */\n    tag_3:\n      tag_4\n      0x04\n      dup1\n      calldatasize\n      sub\n        /* \"--CODEGEN--\":13:15   */\n      0x20\n        /* \"--CODEGEN--\":8:11   */\n      dup2\n        /* \"--CODEGEN--\":5:16   */\n      lt\n        /* \"--CODEGEN--\":2:4   */\n      iszero\n      tag_5\n      jumpi\n        /* \"--CODEGEN--\":29:30   */\n      0x00\n        /* \"--CODEGEN--\":26:27   */\n      dup1\n        /* \"--CODEGEN--\":19:31   */\n      revert\n        /* \"--CODEGEN--\":2:4   */\n    tag_5:\n        /* \"contracts/11.sol\":57:175  function foo(int num) public view returns (int)\r... */\n      dup2\n      add\n      swap1\n      dup1\n      dup1\n      calldataload\n      swap1\n      0x20\n      add\n      swap1\n      swap3\n      swap2\n      swap1\n      pop\n      pop\n      pop\n      tag_6\n      jump\t// in\n    tag_4:\n      mload(0x40)\n      dup1\n      dup3\n      dup2\n      mstore\n      0x20\n      add\n      swap2\n      pop\n      pop\n      mload(0x40)\n      dup1\n      swap2\n      sub\n      swap1\n      return\n    tag_6:\n        /* \"contracts/11.sol\":100:103  int */\n      0x00\n        /* \"contracts/11.sol\":123:133  int result */\n      dup1\n        /* \"contracts/11.sol\":134:137  num */\n      dup3\n        /* \"contracts/11.sol\":123:137  int result=num */\n      swap1\n      pop\n        /* \"contracts/11.sol\":161:167  result */\n      dup1\n        /* \"contracts/11.sol\":154:167  return result */\n      swap2\n      pop\n      pop\n        /* \"contracts/11.sol\":57:175  function foo(int num) public view returns (int)\r... */\n      swap2\n      swap1\n      pop\n      jump\t// out\n\n    auxdata: 0xa265627a7a723158208da7da9886caa97670b7185c8286ba18bfdf84ea85577281c3dafea9a359b72264736f6c63430005110032\n}\n",
				"bytecode": {
					"linkReferences": {},
					"object": "60806040526006600055348015601457600080fd5b5060b0806100236000396000f3fe6080604052348015600f57600080fd5b506004361060285760003560e01c80634c970b2f14602d575b600080fd5b605660048036036020811015604157600080fd5b8101908080359060200190929190505050606c565b6040518082815260200191505060405180910390f35b6000808290508091505091905056fea265627a7a723158208da7da9886caa97670b7185c8286ba18bfdf84ea85577281c3dafea9a359b72264736f6c63430005110032",
					"opcodes": "PUSH1 0x80 PUSH1 0x40 MSTORE PUSH1 0x6 PUSH1 0x0 SSTORE CALLVALUE DUP1 ISZERO PUSH1 0x14 JUMPI PUSH1 0x0 DUP1 REVERT JUMPDEST POP PUSH1 0xB0 DUP1 PUSH2 0x23 PUSH1 0x0 CODECOPY PUSH1 0x0 RETURN INVALID PUSH1 0x80 PUSH1 0x40 MSTORE CALLVALUE DUP1 ISZERO PUSH1 0xF JUMPI PUSH1 0x0 DUP1 REVERT JUMPDEST POP PUSH1 0x4 CALLDATASIZE LT PUSH1 0x28 JUMPI PUSH1 0x0 CALLDATALOAD PUSH1 0xE0 SHR DUP1 PUSH4 0x4C970B2F EQ PUSH1 0x2D JUMPI JUMPDEST PUSH1 0x0 DUP1 REVERT JUMPDEST PUSH1 0x56 PUSH1 0x4 DUP1 CALLDATASIZE SUB PUSH1 0x20 DUP2 LT ISZERO PUSH1 0x41 JUMPI PUSH1 0x0 DUP1 REVERT JUMPDEST DUP2 ADD SWAP1 DUP1 DUP1 CALLDATALOAD SWAP1 PUSH1 0x20 ADD SWAP1 SWAP3 SWAP2 SWAP1 POP POP POP PUSH1 0x6C JUMP JUMPDEST PUSH1 0x40 MLOAD DUP1 DUP3 DUP2 MSTORE PUSH1 0x20 ADD SWAP2 POP POP PUSH1 0x40 MLOAD DUP1 SWAP2 SUB SWAP1 RETURN JUMPDEST PUSH1 0x0 DUP1 DUP3 SWAP1 POP DUP1 SWAP2 POP POP SWAP2 SWAP1 POP JUMP INVALID LOG2 PUSH6 0x627A7A723158 KECCAK256 DUP14 0xA7 0xDA SWAP9 DUP7 0xCA 0xA9 PUSH23 0x70B7185C8286BA18BFDF84EA85577281C3DAFEA9A359B7 0x22 PUSH5 0x736F6C6343 STOP SDIV GT STOP ORIGIN "
				},
				"gasEstimates": {
					"creation": {
						"codeDepositCost": "35200",
						"executionCost": "20093",
						"totalCost": "55293"
					},
					"external": {
						"foo(int256)": "291"
					}
				},
				"methodIdentifiers": {
					"foo(int256)": "4c970b2f"
				}
			},
			"userdoc": {
				"methods": {}
			}
		}
	}
}