{
	"contracts/22.sol": {
		"Sharer": {
			"abi": [
				{
					"constant": false,
					"inputs": [
						{
							"internalType": "address payable",
							"name": "addr",
							"type": "address"
						}
					],
					"name": "sendHalf",
					"outputs": [
						{
							"internalType": "uint256",
							"name": "balance",
							"type": "uint256"
						}
					],
					"payable": true,
					"stateMutability": "payable",
					"type": "function"
				}
			],
			"devdoc": {
				"methods": {}
			},
			"evm": {
				"assembly": "    /* \"contracts/22.sol\":27:708  contract Sharer {\r... */\n  mstore(0x40, 0x80)\n  callvalue\n    /* \"--CODEGEN--\":8:17   */\n  dup1\n    /* \"--CODEGEN--\":5:7   */\n  iszero\n  tag_1\n  jumpi\n    /* \"--CODEGEN--\":30:31   */\n  0x00\n    /* \"--CODEGEN--\":27:28   */\n  dup1\n    /* \"--CODEGEN--\":20:32   */\n  revert\n    /* \"--CODEGEN--\":5:7   */\ntag_1:\n    /* \"contracts/22.sol\":27:708  contract Sharer {\r... */\n  pop\n  dataSize(sub_0)\n  dup1\n  dataOffset(sub_0)\n  0x00\n  codecopy\n  0x00\n  return\nstop\n\nsub_0: assembly {\n        /* \"contracts/22.sol\":27:708  contract Sharer {\r... */\n      mstore(0x40, 0x80)\n      jumpi(tag_1, lt(calldatasize, 0x04))\n      shr(0xe0, calldataload(0x00))\n      dup1\n      0x75949c13\n      eq\n      tag_2\n      jumpi\n    tag_1:\n      0x00\n      dup1\n      revert\n        /* \"contracts/22.sol\":50:705  function sendHalf(address payable addr) public payable returns (uint balance) {\r... */\n    tag_2:\n      tag_3\n      0x04\n      dup1\n      calldatasize\n      sub\n        /* \"--CODEGEN--\":13:15   */\n      0x20\n        /* \"--CODEGEN--\":8:11   */\n      dup2\n        /* \"--CODEGEN--\":5:16   */\n      lt\n        /* \"--CODEGEN--\":2:4   */\n      iszero\n      tag_4\n      jumpi\n        /* \"--CODEGEN--\":29:30   */\n      0x00\n        /* \"--CODEGEN--\":26:27   */\n      dup1\n        /* \"--CODEGEN--\":19:31   */\n      revert\n        /* \"--CODEGEN--\":2:4   */\n    tag_4:\n        /* \"contracts/22.sol\":50:705  function sendHalf(address payable addr) public payable returns (uint balance) {\r... */\n      dup2\n      add\n      swap1\n      dup1\n      dup1\n      calldataload\n      0xffffffffffffffffffffffffffffffffffffffff\n      and\n      swap1\n      0x20\n      add\n      swap1\n      swap3\n      swap2\n      swap1\n      pop\n      pop\n      pop\n      tag_5\n      jump\t// in\n    tag_3:\n      mload(0x40)\n      dup1\n      dup3\n      dup2\n      mstore\n      0x20\n      add\n      swap2\n      pop\n      pop\n      mload(0x40)\n      dup1\n      swap2\n      sub\n      swap1\n      return\n    tag_5:\n        /* \"contracts/22.sol\":114:126  uint balance */\n      0x00\n        /* \"contracts/22.sol\":163:164  0 */\n      dup1\n        /* \"contracts/22.sol\":158:159  2 */\n      0x02\n        /* \"contracts/22.sol\":146:155  msg.value */\n      callvalue\n        /* \"contracts/22.sol\":146:159  msg.value % 2 */\n      dup2\n      tag_7\n      jumpi\n      invalid\n    tag_7:\n      mod\n        /* \"contracts/22.sol\":146:164  msg.value % 2 == 0 */\n      eq\n        /* \"contracts/22.sol\":139:165  assert(msg.value % 2 == 0) */\n      tag_8\n      jumpi\n      invalid\n    tag_8:\n        /* \"contracts/22.sol\":224:250  uint balanceBeforeTransfer */\n      0x00\n        /* \"contracts/22.sol\":253:274  address(this).balance */\n      selfbalance\n        /* \"contracts/22.sol\":224:274  uint balanceBeforeTransfer = address(this).balance */\n      swap1\n      pop\n        /* \"contracts/22.sol\":286:298  bool success */\n      0x00\n        /* \"contracts/22.sol\":304:308  addr */\n      dup4\n        /* \"contracts/22.sol\":304:313  addr.call */\n      0xffffffffffffffffffffffffffffffffffffffff\n      and\n        /* \"contracts/22.sol\":332:333  2 */\n      0x02\n        /* \"contracts/22.sol\":320:329  msg.value */\n      callvalue\n        /* \"contracts/22.sol\":320:333  msg.value / 2 */\n      dup2\n      tag_9\n      jumpi\n      invalid\n    tag_9:\n      div\n        /* \"contracts/22.sol\":304:338  addr.call.value(msg.value / 2)(\"\") */\n      mload(0x40)\n      dup1\n      0x00\n      add\n      swap1\n      pop\n      0x00\n      mload(0x40)\n      dup1\n      dup4\n      sub\n      dup2\n      dup6\n      dup8\n      gas\n      call\n      swap3\n      pop\n      pop\n      pop\n      returndatasize\n        /* \"--CODEGEN--\":14:15   */\n      dup1\n        /* \"--CODEGEN--\":21:22   */\n      0x00\n        /* \"--CODEGEN--\":16:47   */\n      dup2\n      eq\n      tag_11\n      jumpi\n        /* \"--CODEGEN--\":75:79   */\n      0x40\n        /* \"--CODEGEN--\":69:80   */\n      mload\n        /* \"--CODEGEN--\":64:80   */\n      swap2\n      pop\n        /* \"--CODEGEN--\":144:148   */\n      0x1f\n        /* \"--CODEGEN--\":140:149   */\n      not\n        /* \"--CODEGEN--\":133:137   */\n      0x3f\n        /* \"--CODEGEN--\":115:131   */\n      returndatasize\n        /* \"--CODEGEN--\":111:138   */\n      add\n        /* \"--CODEGEN--\":107:150   */\n      and\n        /* \"--CODEGEN--\":104:105   */\n      dup3\n        /* \"--CODEGEN--\":100:151   */\n      add\n        /* \"--CODEGEN--\":94:98   */\n      0x40\n        /* \"--CODEGEN--\":87:152   */\n      mstore\n        /* \"--CODEGEN--\":169:185   */\n      returndatasize\n        /* \"--CODEGEN--\":166:167   */\n      dup3\n        /* \"--CODEGEN--\":159:186   */\n      mstore\n        /* \"--CODEGEN--\":225:241   */\n      returndatasize\n        /* \"--CODEGEN--\":222:223   */\n      0x00\n        /* \"--CODEGEN--\":215:219   */\n      0x20\n        /* \"--CODEGEN--\":212:213   */\n      dup5\n        /* \"--CODEGEN--\":208:220   */\n      add\n        /* \"--CODEGEN--\":193:242   */\n      returndatacopy\n        /* \"--CODEGEN--\":7:249   */\n      jump(tag_10)\n        /* \"--CODEGEN--\":16:47   */\n    tag_11:\n        /* \"--CODEGEN--\":36:40   */\n      0x60\n        /* \"--CODEGEN--\":31:40   */\n      swap2\n      pop\n        /* \"--CODEGEN--\":7:249   */\n    tag_10:\n      pop\n        /* \"contracts/22.sol\":285:338  (bool success, ) = addr.call.value(msg.value / 2)(\"\") */\n      pop\n      swap1\n      pop\n        /* \"contracts/22.sol\":357:364  success */\n      dup1\n        /* \"contracts/22.sol\":349:365  require(success) */\n      tag_12\n      jumpi\n      0x00\n      dup1\n      revert\n    tag_12:\n        /* \"contracts/22.sol\":572:573  2 */\n      0x02\n        /* \"contracts/22.sol\":560:569  msg.value */\n      callvalue\n        /* \"contracts/22.sol\":560:573  msg.value / 2 */\n      dup2\n      tag_13\n      jumpi\n      invalid\n    tag_13:\n      div\n        /* \"contracts/22.sol\":536:557  balanceBeforeTransfer */\n      dup3\n        /* \"contracts/22.sol\":536:573  balanceBeforeTransfer - msg.value / 2 */\n      sub\n        /* \"contracts/22.sol\":511:532  address(this).balance */\n      selfbalance\n        /* \"contracts/22.sol\":511:573  address(this).balance == balanceBeforeTransfer - msg.value / 2 */\n      eq\n        /* \"contracts/22.sol\":504:574  assert(address(this).balance == balanceBeforeTransfer - msg.value / 2) */\n      tag_14\n      jumpi\n      invalid\n    tag_14:\n        /* \"contracts/22.sol\":676:697  address(this).balance */\n      selfbalance\n        /* \"contracts/22.sol\":669:697  return address(this).balance */\n      swap3\n      pop\n      pop\n      pop\n        /* \"contracts/22.sol\":50:705  function sendHalf(address payable addr) public payable returns (uint balance) {\r... */\n      swap2\n      swap1\n      pop\n      jump\t// out\n\n    auxdata: 0xa265627a7a723158203658efb3e929cb5e330aa243d0712cc1bb6f930395ac039749a1c7bfd2bc55f264736f6c63430005110032\n}\n",
				"bytecode": {
					"linkReferences": {},
					"object": "608060405234801561001057600080fd5b50610166806100206000396000f3fe60806040526004361061001e5760003560e01c806375949c1314610023575b600080fd5b6100656004803603602081101561003957600080fd5b81019080803573ffffffffffffffffffffffffffffffffffffffff16906020019092919050505061007b565b6040518082815260200191505060405180910390f35b6000806002348161008857fe5b061461009057fe5b600047905060008373ffffffffffffffffffffffffffffffffffffffff16600234816100b857fe5b0460405180600001905060006040518083038185875af1925050503d80600081146100ff576040519150601f19603f3d011682016040523d82523d6000602084013e610104565b606091505b505090508061011257600080fd5b6002348161011c57fe5b048203471461012757fe5b479250505091905056fea265627a7a723158203658efb3e929cb5e330aa243d0712cc1bb6f930395ac039749a1c7bfd2bc55f264736f6c63430005110032",
					"opcodes": "PUSH1 0x80 PUSH1 0x40 MSTORE CALLVALUE DUP1 ISZERO PUSH2 0x10 JUMPI PUSH1 0x0 DUP1 REVERT JUMPDEST POP PUSH2 0x166 DUP1 PUSH2 0x20 PUSH1 0x0 CODECOPY PUSH1 0x0 RETURN INVALID PUSH1 0x80 PUSH1 0x40 MSTORE PUSH1 0x4 CALLDATASIZE LT PUSH2 0x1E JUMPI PUSH1 0x0 CALLDATALOAD PUSH1 0xE0 SHR DUP1 PUSH4 0x75949C13 EQ PUSH2 0x23 JUMPI JUMPDEST PUSH1 0x0 DUP1 REVERT JUMPDEST PUSH2 0x65 PUSH1 0x4 DUP1 CALLDATASIZE SUB PUSH1 0x20 DUP2 LT ISZERO PUSH2 0x39 JUMPI PUSH1 0x0 DUP1 REVERT JUMPDEST DUP2 ADD SWAP1 DUP1 DUP1 CALLDATALOAD PUSH20 0xFFFFFFFFFFFFFFFFFFFFFFFFFFFFFFFFFFFFFFFF AND SWAP1 PUSH1 0x20 ADD SWAP1 SWAP3 SWAP2 SWAP1 POP POP POP PUSH2 0x7B JUMP JUMPDEST PUSH1 0x40 MLOAD DUP1 DUP3 DUP2 MSTORE PUSH1 0x20 ADD SWAP2 POP POP PUSH1 0x40 MLOAD DUP1 SWAP2 SUB SWAP1 RETURN JUMPDEST PUSH1 0x0 DUP1 PUSH1 0x2 CALLVALUE DUP2 PUSH2 0x88 JUMPI INVALID JUMPDEST MOD EQ PUSH2 0x90 JUMPI INVALID JUMPDEST PUSH1 0x0 SELFBALANCE SWAP1 POP PUSH1 0x0 DUP4 PUSH20 0xFFFFFFFFFFFFFFFFFFFFFFFFFFFFFFFFFFFFFFFF AND PUSH1 0x2 CALLVALUE DUP2 PUSH2 0xB8 JUMPI INVALID JUMPDEST DIV PUSH1 0x40 MLOAD DUP1 PUSH1 0x0 ADD SWAP1 POP PUSH1 0x0 PUSH1 0x40 MLOAD DUP1 DUP4 SUB DUP2 DUP6 DUP8 GAS CALL SWAP3 POP POP POP RETURNDATASIZE DUP1 PUSH1 0x0 DUP2 EQ PUSH2 0xFF JUMPI PUSH1 0x40 MLOAD SWAP2 POP PUSH1 0x1F NOT PUSH1 0x3F RETURNDATASIZE ADD AND DUP3 ADD PUSH1 0x40 MSTORE RETURNDATASIZE DUP3 MSTORE RETURNDATASIZE PUSH1 0x0 PUSH1 0x20 DUP5 ADD RETURNDATACOPY PUSH2 0x104 JUMP JUMPDEST PUSH1 0x60 SWAP2 POP JUMPDEST POP POP SWAP1 POP DUP1 PUSH2 0x112 JUMPI PUSH1 0x0 DUP1 REVERT JUMPDEST PUSH1 0x2 CALLVALUE DUP2 PUSH2 0x11C JUMPI INVALID JUMPDEST DIV DUP3 SUB SELFBALANCE EQ PUSH2 0x127 JUMPI INVALID JUMPDEST SELFBALANCE SWAP3 POP POP POP SWAP2 SWAP1 POP JUMP INVALID LOG2 PUSH6 0x627A7A723158 KECCAK256 CALLDATASIZE PC 0xEF 0xB3 0xE9 0x29 0xCB 0x5E CALLER EXP LOG2 NUMBER 0xD0 PUSH18 0x2CC1BB6F930395AC039749A1C7BFD2BC55F2 PUSH5 0x736F6C6343 STOP SDIV GT STOP ORIGIN "
				},
				"gasEstimates": {
					"creation": {
						"codeDepositCost": "71600",
						"executionCost": "123",
						"totalCost": "71723"
					},
					"external": {
						"sendHalf(address)": "infinite"
					}
				},
				"methodIdentifiers": {
					"sendHalf(address)": "75949c13"
				}
			},
			"userdoc": {
				"methods": {}
			}
		}
	}
}