{
	"contracts/10.sol": {
		"parent": {
			"abi": [
				{
					"inputs": [
						{
							"internalType": "int256",
							"name": "num",
							"type": "int256"
						}
					],
					"name": "foo",
					"outputs": [
						{
							"internalType": "int256",
							"name": "",
							"type": "int256"
						}
					],
					"stateMutability": "view",
					"type": "function"
				}
			],
			"devdoc": {
				"kind": "dev",
				"methods": {},
				"version": 1
			},
			"evm": {
				"assembly": "    /* \"contracts/10.sol\":0:247  contract parent\r... */\n  mstore(0x40, 0x80)\n  callvalue\n  dup1\n  iszero\n  tag_1\n  jumpi\n  0x00\n  dup1\n  revert\ntag_1:\n  pop\n  dataSize(sub_0)\n  dup1\n  dataOffset(sub_0)\n  0x00\n  codecopy\n  0x00\n  return\nstop\n\nsub_0: assembly {\n        /* \"contracts/10.sol\":0:247  contract parent\r... */\n      mstore(0x40, 0x80)\n      callvalue\n      dup1\n      iszero\n      tag_1\n      jumpi\n      0x00\n      dup1\n      revert\n    tag_1:\n      pop\n      jumpi(tag_2, lt(calldatasize, 0x04))\n      shr(0xe0, calldataload(0x00))\n      dup1\n      0x4c970b2f\n      eq\n      tag_3\n      jumpi\n    tag_2:\n      0x00\n      dup1\n      revert\n        /* \"contracts/10.sol\":49:244  function foo(int num) public view returns (int)\r... */\n    tag_3:\n      tag_4\n      0x04\n      dup1\n      calldatasize\n      sub\n      dup2\n      add\n      swap1\n      tag_5\n      swap2\n      swap1\n      tag_6\n      jump\t// in\n    tag_5:\n      tag_7\n      jump\t// in\n    tag_4:\n      mload(0x40)\n      tag_8\n      swap2\n      swap1\n      tag_9\n      jump\t// in\n    tag_8:\n      mload(0x40)\n      dup1\n      swap2\n      sub\n      swap1\n      return\n    tag_7:\n        /* \"contracts/10.sol\":92:95  int */\n      0x00\n        /* \"contracts/10.sol\":198:208  int result */\n      dup1\n        /* \"contracts/10.sol\":209:212  num */\n      dup3\n        /* \"contracts/10.sol\":198:212  int result=num */\n      swap1\n      pop\n        /* \"contracts/10.sol\":230:236  result */\n      dup1\n        /* \"contracts/10.sol\":223:236  return result */\n      swap2\n      pop\n      pop\n        /* \"contracts/10.sol\":49:244  function foo(int num) public view returns (int)\r... */\n      swap2\n      swap1\n      pop\n      jump\t// out\n        /* \"#utility.yul\":7:144   */\n    tag_12:\n        /* \"#utility.yul\":52:57   */\n      0x00\n        /* \"#utility.yul\":90:96   */\n      dup2\n        /* \"#utility.yul\":77:97   */\n      calldataload\n        /* \"#utility.yul\":68:97   */\n      swap1\n      pop\n        /* \"#utility.yul\":106:138   */\n      tag_14\n        /* \"#utility.yul\":132:137   */\n      dup2\n        /* \"#utility.yul\":106:138   */\n      tag_15\n      jump\t// in\n    tag_14:\n        /* \"#utility.yul\":7:144   */\n      swap3\n      swap2\n      pop\n      pop\n      jump\t// out\n        /* \"#utility.yul\":150:477   */\n    tag_6:\n        /* \"#utility.yul\":208:214   */\n      0x00\n        /* \"#utility.yul\":257:259   */\n      0x20\n        /* \"#utility.yul\":245:254   */\n      dup3\n        /* \"#utility.yul\":236:243   */\n      dup5\n        /* \"#utility.yul\":232:255   */\n      sub\n        /* \"#utility.yul\":228:260   */\n      slt\n        /* \"#utility.yul\":225:344   */\n      iszero\n      tag_17\n      jumpi\n        /* \"#utility.yul\":263:342   */\n      tag_18\n      tag_19\n      jump\t// in\n    tag_18:\n        /* \"#utility.yul\":225:344   */\n    tag_17:\n        /* \"#utility.yul\":383:384   */\n      0x00\n        /* \"#utility.yul\":408:460   */\n      tag_20\n        /* \"#utility.yul\":452:459   */\n      dup5\n        /* \"#utility.yul\":443:449   */\n      dup3\n        /* \"#utility.yul\":432:441   */\n      dup6\n        /* \"#utility.yul\":428:450   */\n      add\n        /* \"#utility.yul\":408:460   */\n      tag_12\n      jump\t// in\n    tag_20:\n        /* \"#utility.yul\":398:460   */\n      swap2\n      pop\n        /* \"#utility.yul\":354:470   */\n      pop\n        /* \"#utility.yul\":150:477   */\n      swap3\n      swap2\n      pop\n      pop\n      jump\t// out\n        /* \"#utility.yul\":483:598   */\n    tag_21:\n        /* \"#utility.yul\":568:591   */\n      tag_23\n        /* \"#utility.yul\":585:590   */\n      dup2\n        /* \"#utility.yul\":568:591   */\n      tag_24\n      jump\t// in\n    tag_23:\n        /* \"#utility.yul\":563:566   */\n      dup3\n        /* \"#utility.yul\":556:592   */\n      mstore\n        /* \"#utility.yul\":483:598   */\n      pop\n      pop\n      jump\t// out\n        /* \"#utility.yul\":604:822   */\n    tag_9:\n        /* \"#utility.yul\":695:699   */\n      0x00\n        /* \"#utility.yul\":733:735   */\n      0x20\n        /* \"#utility.yul\":722:731   */\n      dup3\n        /* \"#utility.yul\":718:736   */\n      add\n        /* \"#utility.yul\":710:736   */\n      swap1\n      pop\n        /* \"#utility.yul\":746:815   */\n      tag_26\n        /* \"#utility.yul\":812:813   */\n      0x00\n        /* \"#utility.yul\":801:810   */\n      dup4\n        /* \"#utility.yul\":797:814   */\n      add\n        /* \"#utility.yul\":788:794   */\n      dup5\n        /* \"#utility.yul\":746:815   */\n      tag_21\n      jump\t// in\n    tag_26:\n        /* \"#utility.yul\":604:822   */\n      swap3\n      swap2\n      pop\n      pop\n      jump\t// out\n        /* \"#utility.yul\":909:985   */\n    tag_24:\n        /* \"#utility.yul\":945:952   */\n      0x00\n        /* \"#utility.yul\":974:979   */\n      dup2\n        /* \"#utility.yul\":963:979   */\n      swap1\n      pop\n        /* \"#utility.yul\":909:985   */\n      swap2\n      swap1\n      pop\n      jump\t// out\n        /* \"#utility.yul\":1114:1231   */\n    tag_19:\n        /* \"#utility.yul\":1223:1224   */\n      0x00\n        /* \"#utility.yul\":1220:1221   */\n      dup1\n        /* \"#utility.yul\":1213:1225   */\n      revert\n        /* \"#utility.yul\":1237:1357   */\n    tag_15:\n        /* \"#utility.yul\":1309:1332   */\n      tag_34\n        /* \"#utility.yul\":1326:1331   */\n      dup2\n        /* \"#utility.yul\":1309:1332   */\n      tag_24\n      jump\t// in\n    tag_34:\n        /* \"#utility.yul\":1302:1307   */\n      dup2\n        /* \"#utility.yul\":1299:1333   */\n      eq\n        /* \"#utility.yul\":1289:1351   */\n      tag_35\n      jumpi\n        /* \"#utility.yul\":1347:1348   */\n      0x00\n        /* \"#utility.yul\":1344:1345   */\n      dup1\n        /* \"#utility.yul\":1337:1349   */\n      revert\n        /* \"#utility.yul\":1289:1351   */\n    tag_35:\n        /* \"#utility.yul\":1237:1357   */\n      pop\n      jump\t// out\n\n    auxdata: 0xa2646970667358221220b0fb88dd676dccaa63445f40cfa41420faccf8ab6486d42e328fa691a590fe5c64736f6c63430008070033\n}\n",
				"bytecode": {
					"linkReferences": {},
					"object": "608060405234801561001057600080fd5b50610120806100206000396000f3fe6080604052348015600f57600080fd5b506004361060285760003560e01c80634c970b2f14602d575b600080fd5b60436004803603810190603f91906079565b6057565b604051604e919060ae565b60405180910390f35b60008082905080915050919050565b60008135905060738160d6565b92915050565b600060208284031215608c57608b60d1565b5b60006098848285016066565b91505092915050565b60a88160c7565b82525050565b600060208201905060c1600083018460a1565b92915050565b6000819050919050565b600080fd5b60dd8160c7565b811460e757600080fd5b5056fea2646970667358221220b0fb88dd676dccaa63445f40cfa41420faccf8ab6486d42e328fa691a590fe5c64736f6c63430008070033",
					"opcodes": "PUSH1 0x80 PUSH1 0x40 MSTORE CALLVALUE DUP1 ISZERO PUSH2 0x10 JUMPI PUSH1 0x0 DUP1 REVERT JUMPDEST POP PUSH2 0x120 DUP1 PUSH2 0x20 PUSH1 0x0 CODECOPY PUSH1 0x0 RETURN INVALID PUSH1 0x80 PUSH1 0x40 MSTORE CALLVALUE DUP1 ISZERO PUSH1 0xF JUMPI PUSH1 0x0 DUP1 REVERT JUMPDEST POP PUSH1 0x4 CALLDATASIZE LT PUSH1 0x28 JUMPI PUSH1 0x0 CALLDATALOAD PUSH1 0xE0 SHR DUP1 PUSH4 0x4C970B2F EQ PUSH1 0x2D JUMPI JUMPDEST PUSH1 0x0 DUP1 REVERT JUMPDEST PUSH1 0x43 PUSH1 0x4 DUP1 CALLDATASIZE SUB DUP2 ADD SWAP1 PUSH1 0x3F SWAP2 SWAP1 PUSH1 0x79 JUMP JUMPDEST PUSH1 0x57 JUMP JUMPDEST PUSH1 0x40 MLOAD PUSH1 0x4E SWAP2 SWAP1 PUSH1 0xAE JUMP JUMPDEST PUSH1 0x40 MLOAD DUP1 SWAP2 SUB SWAP1 RETURN JUMPDEST PUSH1 0x0 DUP1 DUP3 SWAP1 POP DUP1 SWAP2 POP POP SWAP2 SWAP1 POP JUMP JUMPDEST PUSH1 0x0 DUP2 CALLDATALOAD SWAP1 POP PUSH1 0x73 DUP2 PUSH1 0xD6 JUMP JUMPDEST SWAP3 SWAP2 POP POP JUMP JUMPDEST PUSH1 0x0 PUSH1 0x20 DUP3 DUP5 SUB SLT ISZERO PUSH1 0x8C JUMPI PUSH1 0x8B PUSH1 0xD1 JUMP JUMPDEST JUMPDEST PUSH1 0x0 PUSH1 0x98 DUP5 DUP3 DUP6 ADD PUSH1 0x66 JUMP JUMPDEST SWAP2 POP POP SWAP3 SWAP2 POP POP JUMP JUMPDEST PUSH1 0xA8 DUP2 PUSH1 0xC7 JUMP JUMPDEST DUP3 MSTORE POP POP JUMP JUMPDEST PUSH1 0x0 PUSH1 0x20 DUP3 ADD SWAP1 POP PUSH1 0xC1 PUSH1 0x0 DUP4 ADD DUP5 PUSH1 0xA1 JUMP JUMPDEST SWAP3 SWAP2 POP POP JUMP JUMPDEST PUSH1 0x0 DUP2 SWAP1 POP SWAP2 SWAP1 POP JUMP JUMPDEST PUSH1 0x0 DUP1 REVERT JUMPDEST PUSH1 0xDD DUP2 PUSH1 0xC7 JUMP JUMPDEST DUP2 EQ PUSH1 0xE7 JUMPI PUSH1 0x0 DUP1 REVERT JUMPDEST POP JUMP INVALID LOG2 PUSH5 0x6970667358 0x22 SLT KECCAK256 0xB0 0xFB DUP9 0xDD PUSH8 0x6DCCAA63445F40CF LOG4 EQ KECCAK256 STATICCALL 0xCC 0xF8 0xAB PUSH5 0x86D42E328F 0xA6 SWAP2 0xA5 SWAP1 INVALID 0x5C PUSH5 0x736F6C6343 STOP ADDMOD SMOD STOP CALLER "
				},
				"gasEstimates": {
					"creation": {
						"codeDepositCost": "57600",
						"executionCost": "105",
						"totalCost": "57705"
					},
					"external": {
						"foo(int256)": "infinite"
					}
				},
				"methodIdentifiers": {
					"foo(int256)": "4c970b2f"
				}
			},
			"userdoc": {
				"kind": "user",
				"methods": {},
				"version": 1
			}
		}
	}
}