{
	"contracts/12.sol": {
		"child": {
			"abi": [
				{
					"constant": true,
					"inputs": [
						{
							"internalType": "int256",
							"name": "num",
							"type": "int256"
						}
					],
					"name": "foo",
					"outputs": [
						{
							"internalType": "int256",
							"name": "",
							"type": "int256"
						}
					],
					"payable": false,
					"stateMutability": "view",
					"type": "function"
				},
				{
					"constant": true,
					"inputs": [
						{
							"internalType": "int256",
							"name": "x",
							"type": "int256"
						}
					],
					"name": "soo",
					"outputs": [
						{
							"internalType": "int256",
							"name": "",
							"type": "int256"
						}
					],
					"payable": false,
					"stateMutability": "view",
					"type": "function"
				},
				{
					"constant": true,
					"inputs": [],
					"name": "zoo",
					"outputs": [
						{
							"internalType": "int256",
							"name": "",
							"type": "int256"
						}
					],
					"payable": false,
					"stateMutability": "view",
					"type": "function"
				}
			],
			"devdoc": {
				"methods": {}
			},
			"evm": {
				"assembly": "    /* \"contracts/12.sol\":328:605  contract child  is parent\r... */\n  mstore(0x40, 0x80)\n    /* \"contracts/12.sol\":57:58  6 */\n  0x06\n    /* \"contracts/12.sol\":51:58  int x=6 */\n  0x00\n  sstore\n    /* \"contracts/12.sol\":328:605  contract child  is parent\r... */\n  callvalue\n    /* \"--CODEGEN--\":8:17   */\n  dup1\n    /* \"--CODEGEN--\":5:7   */\n  iszero\n  tag_1\n  jumpi\n    /* \"--CODEGEN--\":30:31   */\n  0x00\n    /* \"--CODEGEN--\":27:28   */\n  dup1\n    /* \"--CODEGEN--\":20:32   */\n  revert\n    /* \"--CODEGEN--\":5:7   */\ntag_1:\n    /* \"contracts/12.sol\":328:605  contract child  is parent\r... */\n  pop\n  dataSize(sub_0)\n  dup1\n  dataOffset(sub_0)\n  0x00\n  codecopy\n  0x00\n  return\nstop\n\nsub_0: assembly {\n        /* \"contracts/12.sol\":328:605  contract child  is parent\r... */\n      mstore(0x40, 0x80)\n      callvalue\n        /* \"--CODEGEN--\":8:17   */\n      dup1\n        /* \"--CODEGEN--\":5:7   */\n      iszero\n      tag_1\n      jumpi\n        /* \"--CODEGEN--\":30:31   */\n      0x00\n        /* \"--CODEGEN--\":27:28   */\n      dup1\n        /* \"--CODEGEN--\":20:32   */\n      revert\n        /* \"--CODEGEN--\":5:7   */\n    tag_1:\n        /* \"contracts/12.sol\":328:605  contract child  is parent\r... */\n      pop\n      jumpi(tag_2, lt(calldatasize, 0x04))\n      shr(0xe0, calldataload(0x00))\n      dup1\n      0x4c970b2f\n      eq\n      tag_3\n      jumpi\n      dup1\n      0x7b6a8777\n      eq\n      tag_4\n      jumpi\n      dup1\n      0xe6a1451e\n      eq\n      tag_5\n      jumpi\n    tag_2:\n      0x00\n      dup1\n      revert\n        /* \"contracts/12.sol\":79:275  function foo(int num) public view returns (int)\r... */\n    tag_3:\n      tag_6\n      0x04\n      dup1\n      calldatasize\n      sub\n        /* \"--CODEGEN--\":13:15   */\n      0x20\n        /* \"--CODEGEN--\":8:11   */\n      dup2\n        /* \"--CODEGEN--\":5:16   */\n      lt\n        /* \"--CODEGEN--\":2:4   */\n      iszero\n      tag_7\n      jumpi\n        /* \"--CODEGEN--\":29:30   */\n      0x00\n        /* \"--CODEGEN--\":26:27   */\n      dup1\n        /* \"--CODEGEN--\":19:31   */\n      revert\n        /* \"--CODEGEN--\":2:4   */\n    tag_7:\n        /* \"contracts/12.sol\":79:275  function foo(int num) public view returns (int)\r... */\n      dup2\n      add\n      swap1\n      dup1\n      dup1\n      calldataload\n      swap1\n      0x20\n      add\n      swap1\n      swap3\n      swap2\n      swap1\n      pop\n      pop\n      pop\n      tag_8\n      jump\t// in\n    tag_6:\n      mload(0x40)\n      dup1\n      dup3\n      dup2\n      mstore\n      0x20\n      add\n      swap2\n      pop\n      pop\n      mload(0x40)\n      dup1\n      swap2\n      sub\n      swap1\n      return\n        /* \"contracts/12.sol\":487:602  function zoo() public view returns(int)\r... */\n    tag_4:\n      tag_9\n      tag_10\n      jump\t// in\n    tag_9:\n      mload(0x40)\n      dup1\n      dup3\n      dup2\n      mstore\n      0x20\n      add\n      swap2\n      pop\n      pop\n      mload(0x40)\n      dup1\n      swap2\n      sub\n      swap1\n      return\n        /* \"contracts/12.sol\":362:479  function soo(int x) public view returns(int)\r... */\n    tag_5:\n      tag_11\n      0x04\n      dup1\n      calldatasize\n      sub\n        /* \"--CODEGEN--\":13:15   */\n      0x20\n        /* \"--CODEGEN--\":8:11   */\n      dup2\n        /* \"--CODEGEN--\":5:16   */\n      lt\n        /* \"--CODEGEN--\":2:4   */\n      iszero\n      tag_12\n      jumpi\n        /* \"--CODEGEN--\":29:30   */\n      0x00\n        /* \"--CODEGEN--\":26:27   */\n      dup1\n        /* \"--CODEGEN--\":19:31   */\n      revert\n        /* \"--CODEGEN--\":2:4   */\n    tag_12:\n        /* \"contracts/12.sol\":362:479  function soo(int x) public view returns(int)\r... */\n      dup2\n      add\n      swap1\n      dup1\n      dup1\n      calldataload\n      swap1\n      0x20\n      add\n      swap1\n      swap3\n      swap2\n      swap1\n      pop\n      pop\n      pop\n      tag_13\n      jump\t// in\n    tag_11:\n      mload(0x40)\n      dup1\n      dup3\n      dup2\n      mstore\n      0x20\n      add\n      swap2\n      pop\n      pop\n      mload(0x40)\n      dup1\n      swap2\n      sub\n      swap1\n      return\n        /* \"contracts/12.sol\":79:275  function foo(int num) public view returns (int)\r... */\n    tag_8:\n        /* \"contracts/12.sol\":122:125  int */\n      0x00\n        /* \"contracts/12.sol\":227:237  int result */\n      dup1\n        /* \"contracts/12.sol\":242:243  1 */\n      0x01\n        /* \"contracts/12.sol\":238:241  num */\n      dup4\n        /* \"contracts/12.sol\":238:243  num+1 */\n      add\n        /* \"contracts/12.sol\":227:243  int result=num+1 */\n      swap1\n      pop\n        /* \"contracts/12.sol\":261:267  result */\n      dup1\n        /* \"contracts/12.sol\":254:267  return result */\n      swap2\n      pop\n      pop\n        /* \"contracts/12.sol\":79:275  function foo(int num) public view returns (int)\r... */\n      swap2\n      swap1\n      pop\n      jump\t// out\n        /* \"contracts/12.sol\":487:602  function zoo() public view returns(int)\r... */\n    tag_10:\n        /* \"contracts/12.sol\":522:525  int */\n      0x00\n        /* \"contracts/12.sol\":543:548  int z */\n      dup1\n        /* \"contracts/12.sol\":550:556  foo(x) */\n      tag_16\n        /* \"contracts/12.sol\":554:555  x */\n      sload(0x00)\n        /* \"contracts/12.sol\":550:553  foo */\n      tag_8\n        /* \"contracts/12.sol\":550:556  foo(x) */\n      jump\t// in\n    tag_16:\n        /* \"contracts/12.sol\":543:556  int z= foo(x) */\n      swap1\n      pop\n        /* \"contracts/12.sol\":571:572  1 */\n      0x01\n        /* \"contracts/12.sol\":569:570  z */\n      dup2\n        /* \"contracts/12.sol\":569:572  z+1 */\n      add\n        /* \"contracts/12.sol\":567:572  z=z+1 */\n      swap1\n      pop\n        /* \"contracts/12.sol\":593:594  z */\n      dup1\n        /* \"contracts/12.sol\":586:594  return z */\n      swap2\n      pop\n      pop\n        /* \"contracts/12.sol\":487:602  function zoo() public view returns(int)\r... */\n      swap1\n      jump\t// out\n        /* \"contracts/12.sol\":362:479  function soo(int x) public view returns(int)\r... */\n    tag_13:\n        /* \"contracts/12.sol\":402:405  int */\n      0x00\n        /* \"contracts/12.sol\":423:428  int z */\n      dup1\n        /* \"contracts/12.sol\":430:436  foo(x) */\n      tag_18\n        /* \"contracts/12.sol\":434:435  x */\n      dup4\n        /* \"contracts/12.sol\":430:433  foo */\n      tag_8\n        /* \"contracts/12.sol\":430:436  foo(x) */\n      jump\t// in\n    tag_18:\n        /* \"contracts/12.sol\":423:436  int z= foo(x) */\n      swap1\n      pop\n        /* \"contracts/12.sol\":451:452  1 */\n      0x01\n        /* \"contracts/12.sol\":449:450  z */\n      dup2\n        /* \"contracts/12.sol\":449:452  z+1 */\n      add\n        /* \"contracts/12.sol\":447:452  z=z+1 */\n      swap1\n      pop\n        /* \"contracts/12.sol\":470:471  z */\n      dup1\n        /* \"contracts/12.sol\":463:471  return z */\n      swap2\n      pop\n      pop\n        /* \"contracts/12.sol\":362:479  function soo(int x) public view returns(int)\r... */\n      swap2\n      swap1\n      pop\n      jump\t// out\n\n    auxdata: 0xa265627a7a72315820fc3a5d74ec39aaed141b89fa6455bcd3061c5caefaea2b5050b6d8c18bb5ed6f64736f6c63430005110032\n}\n",
				"bytecode": {
					"linkReferences": {},
					"object": "6080604052600660005534801561001557600080fd5b50610169806100256000396000f3fe608060405234801561001057600080fd5b50600436106100415760003560e01c80634c970b2f146100465780637b6a877714610088578063e6a1451e146100a6575b600080fd5b6100726004803603602081101561005c57600080fd5b81019080803590602001909291905050506100e8565b6040518082815260200191505060405180910390f35b6100906100fa565b6040518082815260200191505060405180910390f35b6100d2600480360360208110156100bc57600080fd5b8101908080359060200190929190505050610117565b6040518082815260200191505060405180910390f35b60008060018301905080915050919050565b6000806101086000546100e8565b90506001810190508091505090565b600080610123836100e8565b90506001810190508091505091905056fea265627a7a72315820fc3a5d74ec39aaed141b89fa6455bcd3061c5caefaea2b5050b6d8c18bb5ed6f64736f6c63430005110032",
					"opcodes": "PUSH1 0x80 PUSH1 0x40 MSTORE PUSH1 0x6 PUSH1 0x0 SSTORE CALLVALUE DUP1 ISZERO PUSH2 0x15 JUMPI PUSH1 0x0 DUP1 REVERT JUMPDEST POP PUSH2 0x169 DUP1 PUSH2 0x25 PUSH1 0x0 CODECOPY PUSH1 0x0 RETURN INVALID PUSH1 0x80 PUSH1 0x40 MSTORE CALLVALUE DUP1 ISZERO PUSH2 0x10 JUMPI PUSH1 0x0 DUP1 REVERT JUMPDEST POP PUSH1 0x4 CALLDATASIZE LT PUSH2 0x41 JUMPI PUSH1 0x0 CALLDATALOAD PUSH1 0xE0 SHR DUP1 PUSH4 0x4C970B2F EQ PUSH2 0x46 JUMPI DUP1 PUSH4 0x7B6A8777 EQ PUSH2 0x88 JUMPI DUP1 PUSH4 0xE6A1451E EQ PUSH2 0xA6 JUMPI JUMPDEST PUSH1 0x0 DUP1 REVERT JUMPDEST PUSH2 0x72 PUSH1 0x4 DUP1 CALLDATASIZE SUB PUSH1 0x20 DUP2 LT ISZERO PUSH2 0x5C JUMPI PUSH1 0x0 DUP1 REVERT JUMPDEST DUP2 ADD SWAP1 DUP1 DUP1 CALLDATALOAD SWAP1 PUSH1 0x20 ADD SWAP1 SWAP3 SWAP2 SWAP1 POP POP POP PUSH2 0xE8 JUMP JUMPDEST PUSH1 0x40 MLOAD DUP1 DUP3 DUP2 MSTORE PUSH1 0x20 ADD SWAP2 POP POP PUSH1 0x40 MLOAD DUP1 SWAP2 SUB SWAP1 RETURN JUMPDEST PUSH2 0x90 PUSH2 0xFA JUMP JUMPDEST PUSH1 0x40 MLOAD DUP1 DUP3 DUP2 MSTORE PUSH1 0x20 ADD SWAP2 POP POP PUSH1 0x40 MLOAD DUP1 SWAP2 SUB SWAP1 RETURN JUMPDEST PUSH2 0xD2 PUSH1 0x4 DUP1 CALLDATASIZE SUB PUSH1 0x20 DUP2 LT ISZERO PUSH2 0xBC JUMPI PUSH1 0x0 DUP1 REVERT JUMPDEST DUP2 ADD SWAP1 DUP1 DUP1 CALLDATALOAD SWAP1 PUSH1 0x20 ADD SWAP1 SWAP3 SWAP2 SWAP1 POP POP POP PUSH2 0x117 JUMP JUMPDEST PUSH1 0x40 MLOAD DUP1 DUP3 DUP2 MSTORE PUSH1 0x20 ADD SWAP2 POP POP PUSH1 0x40 MLOAD DUP1 SWAP2 SUB SWAP1 RETURN JUMPDEST PUSH1 0x0 DUP1 PUSH1 0x1 DUP4 ADD SWAP1 POP DUP1 SWAP2 POP POP SWAP2 SWAP1 POP JUMP JUMPDEST PUSH1 0x0 DUP1 PUSH2 0x108 PUSH1 0x0 SLOAD PUSH2 0xE8 JUMP JUMPDEST SWAP1 POP PUSH1 0x1 DUP2 ADD SWAP1 POP DUP1 SWAP2 POP POP SWAP1 JUMP JUMPDEST PUSH1 0x0 DUP1 PUSH2 0x123 DUP4 PUSH2 0xE8 JUMP JUMPDEST SWAP1 POP PUSH1 0x1 DUP2 ADD SWAP1 POP DUP1 SWAP2 POP POP SWAP2 SWAP1 POP JUMP INVALID LOG2 PUSH6 0x627A7A723158 KECCAK256 0xFC GASPRICE 0x5D PUSH21 0xEC39AAED141B89FA6455BCD3061C5CAEFAEA2B5050 0xB6 0xD8 0xC1 DUP12 0xB5 0xED PUSH16 0x64736F6C634300051100320000000000 "
				},
				"gasEstimates": {
					"creation": {
						"codeDepositCost": "72200",
						"executionCost": "20129",
						"totalCost": "92329"
					},
					"external": {
						"foo(int256)": "297",
						"soo(int256)": "411",
						"zoo()": "1102"
					}
				},
				"methodIdentifiers": {
					"foo(int256)": "4c970b2f",
					"soo(int256)": "e6a1451e",
					"zoo()": "7b6a8777"
				}
			},
			"userdoc": {
				"methods": {}
			}
		}
	}
}