{
	"data": {
		"bytecode": {
			"linkReferences": {},
			"object": "608060405234801561001057600080fd5b50610255806100206000396000f3fe608060405234801561001057600080fd5b50600436106100415760003560e01c806308bb111414610046578063afe29f7114610076578063eb69c8c6146100a6575b600080fd5b610060600480360381019061005b9190610188565b6100d6565b60405161006d91906101d7565b60405180910390f35b610090600480360381019061008b91906101f2565b610106565b60405161009d91906101d7565b60405180910390f35b6100c060048036038101906100bb9190610188565b610131565b6040516100cd91906101d7565b60405180910390f35b60008183017f68656c6c6f20776f726c640000000000000000000000000000000000000000008160005260206000f35b6000600160005b838110156101265781600202915060018101905061010d565b508060005260206000f35b60008060058410156101435782840290505b8060005260206000f35b600080fd5b6000819050919050565b61016581610152565b811461017057600080fd5b50565b6000813590506101828161015c565b92915050565b6000806040838503121561019f5761019e61014d565b5b60006101ad85828601610173565b92505060206101be85828601610173565b9150509250929050565b6101d181610152565b82525050565b60006020820190506101ec60008301846101c8565b92915050565b6000602082840312156102085761020761014d565b5b600061021684828501610173565b9150509291505056fea2646970667358221220efd7b906e431a27a3f733e586a563224a65952f6098484ba2ed34d431817d11464736f6c634300080d0033",
			"opcodes": "PUSH1 0x80 PUSH1 0x40 MSTORE CALLVALUE DUP1 ISZERO PUSH2 0x10 JUMPI PUSH1 0x0 DUP1 REVERT JUMPDEST POP PUSH2 0x255 DUP1 PUSH2 0x20 PUSH1 0x0 CODECOPY PUSH1 0x0 RETURN INVALID PUSH1 0x80 PUSH1 0x40 MSTORE CALLVALUE DUP1 ISZERO PUSH2 0x10 JUMPI PUSH1 0x0 DUP1 REVERT JUMPDEST POP PUSH1 0x4 CALLDATASIZE LT PUSH2 0x41 JUMPI PUSH1 0x0 CALLDATALOAD PUSH1 0xE0 SHR DUP1 PUSH4 0x8BB1114 EQ PUSH2 0x46 JUMPI DUP1 PUSH4 0xAFE29F71 EQ PUSH2 0x76 JUMPI DUP1 PUSH4 0xEB69C8C6 EQ PUSH2 0xA6 JUMPI JUMPDEST PUSH1 0x0 DUP1 REVERT JUMPDEST PUSH2 0x60 PUSH1 0x4 DUP1 CALLDATASIZE SUB DUP2 ADD SWAP1 PUSH2 0x5B SWAP2 SWAP1 PUSH2 0x188 JUMP JUMPDEST PUSH2 0xD6 JUMP JUMPDEST PUSH1 0x40 MLOAD PUSH2 0x6D SWAP2 SWAP1 PUSH2 0x1D7 JUMP JUMPDEST PUSH1 0x40 MLOAD DUP1 SWAP2 SUB SWAP1 RETURN JUMPDEST PUSH2 0x90 PUSH1 0x4 DUP1 CALLDATASIZE SUB DUP2 ADD SWAP1 PUSH2 0x8B SWAP2 SWAP1 PUSH2 0x1F2 JUMP JUMPDEST PUSH2 0x106 JUMP JUMPDEST PUSH1 0x40 MLOAD PUSH2 0x9D SWAP2 SWAP1 PUSH2 0x1D7 JUMP JUMPDEST PUSH1 0x40 MLOAD DUP1 SWAP2 SUB SWAP1 RETURN JUMPDEST PUSH2 0xC0 PUSH1 0x4 DUP1 CALLDATASIZE SUB DUP2 ADD SWAP1 PUSH2 0xBB SWAP2 SWAP1 PUSH2 0x188 JUMP JUMPDEST PUSH2 0x131 JUMP JUMPDEST PUSH1 0x40 MLOAD PUSH2 0xCD SWAP2 SWAP1 PUSH2 0x1D7 JUMP JUMPDEST PUSH1 0x40 MLOAD DUP1 SWAP2 SUB SWAP1 RETURN JUMPDEST PUSH1 0x0 DUP2 DUP4 ADD PUSH32 0x68656C6C6F20776F726C64000000000000000000000000000000000000000000 DUP2 PUSH1 0x0 MSTORE PUSH1 0x20 PUSH1 0x0 RETURN JUMPDEST PUSH1 0x0 PUSH1 0x1 PUSH1 0x0 JUMPDEST DUP4 DUP2 LT ISZERO PUSH2 0x126 JUMPI DUP2 PUSH1 0x2 MUL SWAP2 POP PUSH1 0x1 DUP2 ADD SWAP1 POP PUSH2 0x10D JUMP JUMPDEST POP DUP1 PUSH1 0x0 MSTORE PUSH1 0x20 PUSH1 0x0 RETURN JUMPDEST PUSH1 0x0 DUP1 PUSH1 0x5 DUP5 LT ISZERO PUSH2 0x143 JUMPI DUP3 DUP5 MUL SWAP1 POP JUMPDEST DUP1 PUSH1 0x0 MSTORE PUSH1 0x20 PUSH1 0x0 RETURN JUMPDEST PUSH1 0x0 DUP1 REVERT JUMPDEST PUSH1 0x0 DUP2 SWAP1 POP SWAP2 SWAP1 POP JUMP JUMPDEST PUSH2 0x165 DUP2 PUSH2 0x152 JUMP JUMPDEST DUP2 EQ PUSH2 0x170 JUMPI PUSH1 0x0 DUP1 REVERT JUMPDEST POP JUMP JUMPDEST PUSH1 0x0 DUP2 CALLDATALOAD SWAP1 POP PUSH2 0x182 DUP2 PUSH2 0x15C JUMP JUMPDEST SWAP3 SWAP2 POP POP JUMP JUMPDEST PUSH1 0x0 DUP1 PUSH1 0x40 DUP4 DUP6 SUB SLT ISZERO PUSH2 0x19F JUMPI PUSH2 0x19E PUSH2 0x14D JUMP JUMPDEST JUMPDEST PUSH1 0x0 PUSH2 0x1AD DUP6 DUP3 DUP7 ADD PUSH2 0x173 JUMP JUMPDEST SWAP3 POP POP PUSH1 0x20 PUSH2 0x1BE DUP6 DUP3 DUP7 ADD PUSH2 0x173 JUMP JUMPDEST SWAP2 POP POP SWAP3 POP SWAP3 SWAP1 POP JUMP JUMPDEST PUSH2 0x1D1 DUP2 PUSH2 0x152 JUMP JUMPDEST DUP3 MSTORE POP POP JUMP JUMPDEST PUSH1 0x0 PUSH1 0x20 DUP3 ADD SWAP1 POP PUSH2 0x1EC PUSH1 0x0 DUP4 ADD DUP5 PUSH2 0x1C8 JUMP JUMPDEST SWAP3 SWAP2 POP POP JUMP JUMPDEST PUSH1 0x0 PUSH1 0x20 DUP3 DUP5 SUB SLT ISZERO PUSH2 0x208 JUMPI PUSH2 0x207 PUSH2 0x14D JUMP JUMPDEST JUMPDEST PUSH1 0x0 PUSH2 0x216 DUP5 DUP3 DUP6 ADD PUSH2 0x173 JUMP JUMPDEST SWAP2 POP POP SWAP3 SWAP2 POP POP JUMP INVALID LOG2 PUSH5 0x6970667358 0x22 SLT KECCAK256 0xEF 0xD7 0xB9 MOD 0xE4 BALANCE LOG2 PUSH27 0x3F733E586A563224A65952F6098484BA2ED34D431817D11464736F PUSH13 0x634300080D0033000000000000 "
		},
		"gasEstimates": {
			"creation": {
				"codeDepositCost": "119400",
				"executionCost": "165",
				"totalCost": "119565"
			},
			"external": {
				"addAssembly(uint256,uint256)": "infinite",
				"multiplicationAssembly(uint256,uint256)": "infinite",
				"t(uint256)": "infinite"
			}
		},
		"methodIdentifiers": {
			"addAssembly(uint256,uint256)": "08bb1114",
			"multiplicationAssembly(uint256,uint256)": "eb69c8c6",
			"t(uint256)": "afe29f71"
		}
	},
	"abi": [
		{
			"inputs": [
				{
					"internalType": "uint256",
					"name": "x",
					"type": "uint256"
				},
				{
					"internalType": "uint256",
					"name": "y",
					"type": "uint256"
				}
			],
			"name": "addAssembly",
			"outputs": [
				{
					"internalType": "uint256",
					"name": "",
					"type": "uint256"
				}
			],
			"stateMutability": "view",
			"type": "function"
		},
		{
			"inputs": [
				{
					"internalType": "uint256",
					"name": "x",
					"type": "uint256"
				},
				{
					"internalType": "uint256",
					"name": "y",
					"type": "uint256"
				}
			],
			"name": "multiplicationAssembly",
			"outputs": [
				{
					"internalType": "uint256",
					"name": "",
					"type": "uint256"
				}
			],
			"stateMutability": "view",
			"type": "function"
		},
		{
			"inputs": [
				{
					"internalType": "uint256",
					"name": "n",
					"type": "uint256"
				}
			],
			"name": "t",
			"outputs": [
				{
					"internalType": "uint256",
					"name": "",
					"type": "uint256"
				}
			],
			"stateMutability": "view",
			"type": "function"
		}
	]
}