{
	"data": {
		"bytecode": {
			"linkReferences": {},
			"object": "60806040526006600055600660025534801561001a57600080fd5b5061014c8061002a6000396000f3fe608060405234801561001057600080fd5b50600436106100415760003560e01c80634c970b2f146100465780635a98129f146100885780638c203280146100ca575b600080fd5b6100726004803603602081101561005c57600080fd5b81019080803590602001909291905050506100e8565b6040518082815260200191505060405180910390f35b6100b46004803603602081101561009e57600080fd5b81019080803590602001909291905050506100f7565b6040518082815260200191505060405180910390f35b6100d2610101565b6040518082815260200191505060405180910390f35b60008082905080915050919050565b6000819050919050565b60008061010e60026100e8565b9050809150509056fea265627a7a723158203527515352fe52394930d18e72cc73cd0b4925bbeab42bee25e3783133717a9064736f6c63430005110032",
			"opcodes": "PUSH1 0x80 PUSH1 0x40 MSTORE PUSH1 0x6 PUSH1 0x0 SSTORE PUSH1 0x6 PUSH1 0x2 SSTORE CALLVALUE DUP1 ISZERO PUSH2 0x1A JUMPI PUSH1 0x0 DUP1 REVERT JUMPDEST POP PUSH2 0x14C DUP1 PUSH2 0x2A PUSH1 0x0 CODECOPY PUSH1 0x0 RETURN INVALID PUSH1 0x80 PUSH1 0x40 MSTORE CALLVALUE DUP1 ISZERO PUSH2 0x10 JUMPI PUSH1 0x0 DUP1 REVERT JUMPDEST POP PUSH1 0x4 CALLDATASIZE LT PUSH2 0x41 JUMPI PUSH1 0x0 CALLDATALOAD PUSH1 0xE0 SHR DUP1 PUSH4 0x4C970B2F EQ PUSH2 0x46 JUMPI DUP1 PUSH4 0x5A98129F EQ PUSH2 0x88 JUMPI DUP1 PUSH4 0x8C203280 EQ PUSH2 0xCA JUMPI JUMPDEST PUSH1 0x0 DUP1 REVERT JUMPDEST PUSH2 0x72 PUSH1 0x4 DUP1 CALLDATASIZE SUB PUSH1 0x20 DUP2 LT ISZERO PUSH2 0x5C JUMPI PUSH1 0x0 DUP1 REVERT JUMPDEST DUP2 ADD SWAP1 DUP1 DUP1 CALLDATALOAD SWAP1 PUSH1 0x20 ADD SWAP1 SWAP3 SWAP2 SWAP1 POP POP POP PUSH2 0xE8 JUMP JUMPDEST PUSH1 0x40 MLOAD DUP1 DUP3 DUP2 MSTORE PUSH1 0x20 ADD SWAP2 POP POP PUSH1 0x40 MLOAD DUP1 SWAP2 SUB SWAP1 RETURN JUMPDEST PUSH2 0xB4 PUSH1 0x4 DUP1 CALLDATASIZE SUB PUSH1 0x20 DUP2 LT ISZERO PUSH2 0x9E JUMPI PUSH1 0x0 DUP1 REVERT JUMPDEST DUP2 ADD SWAP1 DUP1 DUP1 CALLDATALOAD SWAP1 PUSH1 0x20 ADD SWAP1 SWAP3 SWAP2 SWAP1 POP POP POP PUSH2 0xF7 JUMP JUMPDEST PUSH1 0x40 MLOAD DUP1 DUP3 DUP2 MSTORE PUSH1 0x20 ADD SWAP2 POP POP PUSH1 0x40 MLOAD DUP1 SWAP2 SUB SWAP1 RETURN JUMPDEST PUSH2 0xD2 PUSH2 0x101 JUMP JUMPDEST PUSH1 0x40 MLOAD DUP1 DUP3 DUP2 MSTORE PUSH1 0x20 ADD SWAP2 POP POP PUSH1 0x40 MLOAD DUP1 SWAP2 SUB SWAP1 RETURN JUMPDEST PUSH1 0x0 DUP1 DUP3 SWAP1 POP DUP1 SWAP2 POP POP SWAP2 SWAP1 POP JUMP JUMPDEST PUSH1 0x0 DUP2 SWAP1 POP SWAP2 SWAP1 POP JUMP JUMPDEST PUSH1 0x0 DUP1 PUSH2 0x10E PUSH1 0x2 PUSH2 0xE8 JUMP JUMPDEST SWAP1 POP DUP1 SWAP2 POP POP SWAP1 JUMP INVALID LOG2 PUSH6 0x627A7A723158 KECCAK256 CALLDATALOAD 0x27 MLOAD MSTORE8 MSTORE INVALID MSTORE CODECOPY 0x49 ADDRESS 0xD1 DUP15 PUSH19 0xCC73CD0B4925BBEAB42BEE25E3783133717A90 PUSH5 0x736F6C6343 STOP SDIV GT STOP ORIGIN "
		},
		"gasEstimates": {
			"creation": {
				"codeDepositCost": "66400",
				"executionCost": "40129",
				"totalCost": "106529"
			},
			"external": {
				"foo(int256)": "291",
				"soo()": "304",
				"zoo(int256)": "300"
			}
		},
		"methodIdentifiers": {
			"foo(int256)": "4c970b2f",
			"soo()": "8c203280",
			"zoo(int256)": "5a98129f"
		}
	},
	"abi": [
		{
			"constant": true,
			"inputs": [
				{
					"internalType": "int256",
					"name": "num",
					"type": "int256"
				}
			],
			"name": "foo",
			"outputs": [
				{
					"internalType": "int256",
					"name": "",
					"type": "int256"
				}
			],
			"payable": false,
			"stateMutability": "view",
			"type": "function"
		},
		{
			"constant": true,
			"inputs": [],
			"name": "soo",
			"outputs": [
				{
					"internalType": "int256",
					"name": "",
					"type": "int256"
				}
			],
			"payable": false,
			"stateMutability": "view",
			"type": "function"
		},
		{
			"constant": true,
			"inputs": [
				{
					"internalType": "int256",
					"name": "k",
					"type": "int256"
				}
			],
			"name": "zoo",
			"outputs": [
				{
					"internalType": "int256",
					"name": "",
					"type": "int256"
				}
			],
			"payable": false,
			"stateMutability": "view",
			"type": "function"
		}
	]
}